{
  "contractName": "BasicPoll",
  "abi": [
    {
      "inputs": [
        {
          "internalType": "string",
          "name": "_name",
          "type": "string"
        }
      ],
      "stateMutability": "nonpayable",
      "type": "constructor"
    },
    {
      "inputs": [
        {
          "internalType": "uint256",
          "name": "",
          "type": "uint256"
        }
      ],
      "name": "candidates",
      "outputs": [
        {
          "internalType": "string",
          "name": "Name",
          "type": "string"
        },
        {
          "internalType": "uint256",
          "name": "VoteCount",
          "type": "uint256"
        }
      ],
      "stateMutability": "view",
      "type": "function"
    },
    {
      "inputs": [],
      "name": "electionName",
      "outputs": [
        {
          "internalType": "string",
          "name": "",
          "type": "string"
        }
      ],
      "stateMutability": "view",
      "type": "function"
    },
    {
      "inputs": [],
      "name": "owner",
      "outputs": [
        {
          "internalType": "address",
          "name": "",
          "type": "address"
        }
      ],
      "stateMutability": "view",
      "type": "function"
    },
    {
      "inputs": [],
      "name": "totalVotes",
      "outputs": [
        {
          "internalType": "uint256",
          "name": "",
          "type": "uint256"
        }
      ],
      "stateMutability": "view",
      "type": "function"
    },
    {
      "inputs": [
        {
          "internalType": "address",
          "name": "",
          "type": "address"
        }
      ],
      "name": "voters",
      "outputs": [
        {
          "internalType": "bool",
          "name": "authorized",
          "type": "bool"
        },
        {
          "internalType": "bool",
          "name": "voted",
          "type": "bool"
        },
        {
          "internalType": "uint256",
          "name": "vote",
          "type": "uint256"
        }
      ],
      "stateMutability": "view",
      "type": "function"
    },
    {
      "inputs": [
        {
          "internalType": "string",
          "name": "_name",
          "type": "string"
        }
      ],
      "name": "addCandidate",
      "outputs": [],
      "stateMutability": "nonpayable",
      "type": "function"
    },
    {
      "inputs": [],
      "name": "getNumCandidate",
      "outputs": [
        {
          "internalType": "uint256",
          "name": "",
          "type": "uint256"
        }
      ],
      "stateMutability": "view",
      "type": "function"
    },
    {
      "inputs": [],
      "name": "getAllCandidates",
      "outputs": [
        {
          "components": [
            {
              "internalType": "string",
              "name": "Name",
              "type": "string"
            },
            {
              "internalType": "uint256",
              "name": "VoteCount",
              "type": "uint256"
            }
          ],
          "internalType": "struct BasicPoll.Candidate[]",
          "name": "",
          "type": "tuple[]"
        }
      ],
      "stateMutability": "view",
      "type": "function"
    },
    {
      "inputs": [
        {
          "internalType": "address",
          "name": "_person",
          "type": "address"
        }
      ],
      "name": "authorize",
      "outputs": [],
      "stateMutability": "nonpayable",
      "type": "function"
    },
    {
      "inputs": [
        {
          "internalType": "uint256",
          "name": "_voteIndex",
          "type": "uint256"
        }
      ],
      "name": "vote",
      "outputs": [],
      "stateMutability": "nonpayable",
      "type": "function"
    },
    {
      "inputs": [],
      "name": "end",
      "outputs": [],
      "stateMutability": "nonpayable",
      "type": "function"
    }
  ],
  "bytecode": "0x60806040523480156200001157600080fd5b50604051620014e7380380620014e78339818101604052810190620000379190620002e4565b336000806101000a81548173ffffffffffffffffffffffffffffffffffffffff021916908373ffffffffffffffffffffffffffffffffffffffff16021790555080600190805190602001906200008f92919062000097565b50506200039a565b828054620000a59062000364565b90600052602060002090601f016020900481019282620000c9576000855562000115565b82601f10620000e457805160ff191683800117855562000115565b8280016001018555821562000115579182015b8281111562000114578251825591602001919060010190620000f7565b5b50905062000124919062000128565b5090565b5b808211156200014357600081600090555060010162000129565b5090565b6000604051905090565b600080fd5b600080fd5b600080fd5b600080fd5b6000601f19601f8301169050919050565b7f4e487b7100000000000000000000000000000000000000000000000000000000600052604160045260246000fd5b620001b08262000165565b810181811067ffffffffffffffff82111715620001d257620001d162000176565b5b80604052505050565b6000620001e762000147565b9050620001f58282620001a5565b919050565b600067ffffffffffffffff82111562000218576200021762000176565b5b620002238262000165565b9050602081019050919050565b60005b838110156200025057808201518184015260208101905062000233565b8381111562000260576000848401525b50505050565b60006200027d6200027784620001fa565b620001db565b9050828152602081018484840111156200029c576200029b62000160565b5b620002a984828562000230565b509392505050565b600082601f830112620002c957620002c86200015b565b5b8151620002db84826020860162000266565b91505092915050565b600060208284031215620002fd57620002fc62000151565b5b600082015167ffffffffffffffff8111156200031e576200031d62000156565b5b6200032c84828501620002b1565b91505092915050565b7f4e487b7100000000000000000000000000000000000000000000000000000000600052602260045260246000fd5b600060028204905060018216806200037d57607f821691505b6020821081141562000394576200039362000335565b5b50919050565b61113d80620003aa6000396000f3fe608060405234801561001057600080fd5b50600436106100a95760003560e01c806385e8e7a71161007157806385e8e7a7146101535780638da5cb5b14610171578063a3ec138d1461018f578063b6a5d7de146101c1578063d02cf3cf146101dd578063efbe1c1c146101fb576100a9565b80630121b93f146100ae5780630d15fd77146100ca5780632e6997fe146100e85780633477ee2e14610106578063462e91ec14610137575b600080fd5b6100c860048036038101906100c391906109d9565b610205565b005b6100d2610420565b6040516100df9190610a15565b60405180910390f35b6100f0610426565b6040516100fd9190610bd7565b60405180910390f35b610120600480360381019061011b91906109d9565b610521565b60405161012e929190610c43565b60405180910390f35b610151600480360381019061014c9190610da8565b6105dd565b005b61015b6106a2565b6040516101689190610df1565b60405180910390f35b610179610730565b6040516101869190610e54565b60405180910390f35b6101a960048036038101906101a49190610e9b565b610754565b6040516101b893929190610ee3565b60405180910390f35b6101db60048036038101906101d69190610e9b565b610798565b005b6101e561084e565b6040516101f29190610a15565b60405180910390f35b61020361085b565b005b600260003373ffffffffffffffffffffffffffffffffffffffff1673ffffffffffffffffffffffffffffffffffffffff16815260200190815260200160002060000160019054906101000a900460ff1615610295576040517f08c379a000000000000000000000000000000000000000000000000000000000815260040161028c90610f66565b60405180910390fd5b600260003373ffffffffffffffffffffffffffffffffffffffff1673ffffffffffffffffffffffffffffffffffffffff16815260200190815260200160002060000160009054906101000a900460ff16610324576040517f08c379a000000000000000000000000000000000000000000000000000000000815260040161031b90610fd2565b60405180910390fd5b80600260003373ffffffffffffffffffffffffffffffffffffffff1673ffffffffffffffffffffffffffffffffffffffff168152602001908152602001600020600101819055506001600260003373ffffffffffffffffffffffffffffffffffffffff1673ffffffffffffffffffffffffffffffffffffffff16815260200190815260200160002060000160016101000a81548160ff0219169083151502179055506001600382815481106103dc576103db610ff2565b5b906000526020600020906002020160010160008282546103fc9190611050565b925050819055506001600460008282546104169190611050565b9250508190555050565b60045481565b60606003805480602002602001604051908101604052809291908181526020016000905b82821015610518578382906000526020600020906002020160405180604001604052908160008201805461047d906110d5565b80601f01602080910402602001604051908101604052809291908181526020018280546104a9906110d5565b80156104f65780601f106104cb576101008083540402835291602001916104f6565b820191906000526020600020905b8154815290600101906020018083116104d957829003601f168201915b505050505081526020016001820154815250508152602001906001019061044a565b50505050905090565b6003818154811061053157600080fd5b9060005260206000209060020201600091509050806000018054610554906110d5565b80601f0160208091040260200160405190810160405280929190818152602001828054610580906110d5565b80156105cd5780601f106105a2576101008083540402835291602001916105cd565b820191906000526020600020905b8154815290600101906020018083116105b057829003601f168201915b5050505050908060010154905082565b60008054906101000a900473ffffffffffffffffffffffffffffffffffffffff1673ffffffffffffffffffffffffffffffffffffffff163373ffffffffffffffffffffffffffffffffffffffff161461063557600080fd5b600360405180604001604052808381526020016000815250908060018154018082558091505060019003906000526020600020906002020160009091909190915060008201518160000190805190602001906106929291906108ec565b5060208201518160010155505050565b600180546106af906110d5565b80601f01602080910402602001604051908101604052809291908181526020018280546106db906110d5565b80156107285780601f106106fd57610100808354040283529160200191610728565b820191906000526020600020905b81548152906001019060200180831161070b57829003601f168201915b505050505081565b60008054906101000a900473ffffffffffffffffffffffffffffffffffffffff1681565b60026020528060005260406000206000915090508060000160009054906101000a900460ff16908060000160019054906101000a900460ff16908060010154905083565b60008054906101000a900473ffffffffffffffffffffffffffffffffffffffff1673ffffffffffffffffffffffffffffffffffffffff163373ffffffffffffffffffffffffffffffffffffffff16146107f057600080fd5b6001600260008373ffffffffffffffffffffffffffffffffffffffff1673ffffffffffffffffffffffffffffffffffffffff16815260200190815260200160002060000160006101000a81548160ff02191690831515021790555050565b6000600380549050905090565b60008054906101000a900473ffffffffffffffffffffffffffffffffffffffff1673ffffffffffffffffffffffffffffffffffffffff163373ffffffffffffffffffffffffffffffffffffffff16146108b357600080fd5b60008054906101000a900473ffffffffffffffffffffffffffffffffffffffff1673ffffffffffffffffffffffffffffffffffffffff16ff5b8280546108f8906110d5565b90600052602060002090601f01602090048101928261091a5760008555610961565b82601f1061093357805160ff1916838001178555610961565b82800160010185558215610961579182015b82811115610960578251825591602001919060010190610945565b5b50905061096e9190610972565b5090565b5b8082111561098b576000816000905550600101610973565b5090565b6000604051905090565b600080fd5b600080fd5b6000819050919050565b6109b6816109a3565b81146109c157600080fd5b50565b6000813590506109d3816109ad565b92915050565b6000602082840312156109ef576109ee610999565b5b60006109fd848285016109c4565b91505092915050565b610a0f816109a3565b82525050565b6000602082019050610a2a6000830184610a06565b92915050565b600081519050919050565b600082825260208201905092915050565b6000819050602082019050919050565b600081519050919050565b600082825260208201905092915050565b60005b83811015610a96578082015181840152602081019050610a7b565b83811115610aa5576000848401525b50505050565b6000601f19601f8301169050919050565b6000610ac782610a5c565b610ad18185610a67565b9350610ae1818560208601610a78565b610aea81610aab565b840191505092915050565b610afe816109a3565b82525050565b60006040830160008301518482036000860152610b218282610abc565b9150506020830151610b366020860182610af5565b508091505092915050565b6000610b4d8383610b04565b905092915050565b6000602082019050919050565b6000610b6d82610a30565b610b778185610a3b565b935083602082028501610b8985610a4c565b8060005b85811015610bc55784840389528151610ba68582610b41565b9450610bb183610b55565b925060208a01995050600181019050610b8d565b50829750879550505050505092915050565b60006020820190508181036000830152610bf18184610b62565b905092915050565b600082825260208201905092915050565b6000610c1582610a5c565b610c1f8185610bf9565b9350610c2f818560208601610a78565b610c3881610aab565b840191505092915050565b60006040820190508181036000830152610c5d8185610c0a565b9050610c6c6020830184610a06565b9392505050565b600080fd5b600080fd5b7f4e487b7100000000000000000000000000000000000000000000000000000000600052604160045260246000fd5b610cb582610aab565b810181811067ffffffffffffffff82111715610cd457610cd3610c7d565b5b80604052505050565b6000610ce761098f565b9050610cf38282610cac565b919050565b600067ffffffffffffffff821115610d1357610d12610c7d565b5b610d1c82610aab565b9050602081019050919050565b82818337600083830152505050565b6000610d4b610d4684610cf8565b610cdd565b905082815260208101848484011115610d6757610d66610c78565b5b610d72848285610d29565b509392505050565b600082601f830112610d8f57610d8e610c73565b5b8135610d9f848260208601610d38565b91505092915050565b600060208284031215610dbe57610dbd610999565b5b600082013567ffffffffffffffff811115610ddc57610ddb61099e565b5b610de884828501610d7a565b91505092915050565b60006020820190508181036000830152610e0b8184610c0a565b905092915050565b600073ffffffffffffffffffffffffffffffffffffffff82169050919050565b6000610e3e82610e13565b9050919050565b610e4e81610e33565b82525050565b6000602082019050610e696000830184610e45565b92915050565b610e7881610e33565b8114610e8357600080fd5b50565b600081359050610e9581610e6f565b92915050565b600060208284031215610eb157610eb0610999565b5b6000610ebf84828501610e86565b91505092915050565b60008115159050919050565b610edd81610ec8565b82525050565b6000606082019050610ef86000830186610ed4565b610f056020830185610ed4565b610f126040830184610a06565b949350505050565b7f566f74656420616c726561647921000000000000000000000000000000000000600082015250565b6000610f50600e83610bf9565b9150610f5b82610f1a565b602082019050919050565b60006020820190508181036000830152610f7f81610f43565b9050919050565b7f4e6f7420617574686f72697a656420746f20766f746521000000000000000000600082015250565b6000610fbc601783610bf9565b9150610fc782610f86565b602082019050919050565b60006020820190508181036000830152610feb81610faf565b9050919050565b7f4e487b7100000000000000000000000000000000000000000000000000000000600052603260045260246000fd5b7f4e487b7100000000000000000000000000000000000000000000000000000000600052601160045260246000fd5b600061105b826109a3565b9150611066836109a3565b9250827fffffffffffffffffffffffffffffffffffffffffffffffffffffffffffffffff0382111561109b5761109a611021565b5b828201905092915050565b7f4e487b7100000000000000000000000000000000000000000000000000000000600052602260045260246000fd5b600060028204905060018216806110ed57607f821691505b60208210811415611101576111006110a6565b5b5091905056fea2646970667358221220c57403e90f77e7cb6acf17c8526479c63f085343e01a6984072299034ad8c23664736f6c634300080a0033",
  "immutableReferences": {},
  "source": "// SPDX-License-Identifier: GPL-3.0\npragma solidity >=0.7.0 <0.9.0;\n\ncontract BasicPoll {\n    \n    //own datas type for the definition of a candidate\n    struct Candidate {\n        string Name;\n        uint256 VoteCount;\n    }\n    //own datas type for a voter\n    struct Voter {\n        bool authorized;\n        bool voted;\n        uint256 vote;\n    }\n    \n    //poll owner\n    address public owner;\n    //name of the election\n    string public electionName;\n    //define key-value voters map, i.e. each voter has an address\n    mapping(address => Voter) public voters;\n     //array of candidate types\n    Candidate [] public candidates;\n    //count of all votes for the current poll\n    uint256 public totalVotes;\n    //when invoked, restrict function usage only to contract owner\n    modifier ownerOnly () {\n        require(msg.sender==owner);\n        _;\n    }\n    \n    //by default have a poll/election owner and a poll name defined\n    constructor(string memory _name)  {  \n        owner = msg.sender;\n        electionName = _name;\n    }  \n    \n    //add a candidate for the poll\n    function addCandidate(string memory _name) ownerOnly public {\n        candidates.push(Candidate(_name,0));\n    }\n    \n     //get the number of candidates\n    function getNumCandidate() public view returns(uint256) {\n        return candidates.length;\n    }\n    \n    /* Can return the entire array of Candidates, but according to Solidity this should be \n    avoided for arrays that can grow indefinitely in length. */\n    function getAllCandidates() public view returns (Candidate[] memory) {\n        return candidates;\n    }\n   \n    //only authorized voters can vote. only poll owner can authorize them\n    function authorize(address _person) ownerOnly public {\n        voters[_person].authorized = true;\n    }\n    \n    //voting, if not voted already and if authorized\n    function vote(uint256 _voteIndex) public{\n        require(\n            !voters[msg.sender].voted,\n            \"Voted already!\"\n            );\n        require(\n            voters[msg.sender].authorized,\n            \"Not authorized to vote!\"\n            );\n        \n        //when invoked, restrict function usage only to contract owner\n        voters[msg.sender].vote=_voteIndex;\n        //now voted\n        voters[msg.sender].voted=true;\n        //candidate at _voteIndex got one vote\n        candidates[_voteIndex].VoteCount+=1;\n         //total votes for this poll\n        totalVotes+=1;\n    }    \n    \n    //end the poll, possible only if done by poll owner\n    function end() ownerOnly public {\n        //destroys this contract\n        selfdestruct(payable(owner));\n        //if the contract had any ether currently, any remaining ethers\n        //would be transferred to the owner address\n    }\n}\n",
  "sourcePath": "/Users/solveighelland/blockchain-programming/contracts/BasicPoll.sol",
  "compiler": {
    "name": "solc",
    "version": "0.8.10+commit.fc410830.Emscripten.clang"
  },
  "schemaVersion": "3.4.3",
  "updatedAt": "2021-12-10T16:37:03.365Z",
  "devdoc": {
    "kind": "dev",
    "methods": {},
    "version": 1
  },
  "userdoc": {
    "kind": "user",
    "methods": {},
    "version": 1
  }
}