{
  "contractName": "Poll",
  "abi": [
    {
      "inputs": [
        {
          "internalType": "string",
          "name": "_name",
          "type": "string"
        },
        {
          "internalType": "string",
          "name": "_description",
          "type": "string"
        },
        {
          "internalType": "string",
          "name": "_candidate1",
          "type": "string"
        },
        {
          "internalType": "string",
          "name": "_candidate2",
          "type": "string"
        },
        {
          "internalType": "address",
          "name": "_token",
          "type": "address"
        }
      ],
      "stateMutability": "nonpayable",
      "type": "constructor"
    },
    {
      "inputs": [
        {
          "internalType": "uint256",
          "name": "",
          "type": "uint256"
        }
      ],
      "name": "candidates",
      "outputs": [
        {
          "internalType": "string",
          "name": "Name",
          "type": "string"
        },
        {
          "internalType": "uint256",
          "name": "VoteCount",
          "type": "uint256"
        }
      ],
      "stateMutability": "view",
      "type": "function"
    },
    {
      "inputs": [],
      "name": "description",
      "outputs": [
        {
          "internalType": "string",
          "name": "",
          "type": "string"
        }
      ],
      "stateMutability": "view",
      "type": "function"
    },
    {
      "inputs": [],
      "name": "electionName",
      "outputs": [
        {
          "internalType": "string",
          "name": "",
          "type": "string"
        }
      ],
      "stateMutability": "view",
      "type": "function"
    },
    {
      "inputs": [],
      "name": "owner",
      "outputs": [
        {
          "internalType": "address",
          "name": "",
          "type": "address"
        }
      ],
      "stateMutability": "view",
      "type": "function"
    },
    {
      "inputs": [],
      "name": "token",
      "outputs": [
        {
          "internalType": "contract VoteToken",
          "name": "",
          "type": "address"
        }
      ],
      "stateMutability": "view",
      "type": "function"
    },
    {
      "inputs": [],
      "name": "totalVotes",
      "outputs": [
        {
          "internalType": "uint256",
          "name": "",
          "type": "uint256"
        }
      ],
      "stateMutability": "view",
      "type": "function"
    },
    {
      "inputs": [
        {
          "internalType": "address",
          "name": "",
          "type": "address"
        }
      ],
      "name": "voters",
      "outputs": [
        {
          "internalType": "bool",
          "name": "joined",
          "type": "bool"
        },
        {
          "internalType": "bool",
          "name": "voted",
          "type": "bool"
        },
        {
          "internalType": "uint256",
          "name": "vote",
          "type": "uint256"
        }
      ],
      "stateMutability": "view",
      "type": "function"
    },
    {
      "inputs": [
        {
          "internalType": "string",
          "name": "_name",
          "type": "string"
        }
      ],
      "name": "addCandidate",
      "outputs": [],
      "stateMutability": "nonpayable",
      "type": "function"
    },
    {
      "inputs": [],
      "name": "getNumCandidate",
      "outputs": [
        {
          "internalType": "uint256",
          "name": "",
          "type": "uint256"
        }
      ],
      "stateMutability": "view",
      "type": "function"
    },
    {
      "inputs": [],
      "name": "getCandidates",
      "outputs": [
        {
          "components": [
            {
              "internalType": "string",
              "name": "Name",
              "type": "string"
            },
            {
              "internalType": "uint256",
              "name": "VoteCount",
              "type": "uint256"
            }
          ],
          "internalType": "struct Poll.Candidate[]",
          "name": "",
          "type": "tuple[]"
        }
      ],
      "stateMutability": "view",
      "type": "function"
    },
    {
      "inputs": [],
      "name": "join",
      "outputs": [],
      "stateMutability": "nonpayable",
      "type": "function"
    },
    {
      "inputs": [
        {
          "internalType": "uint256",
          "name": "_voteIndex",
          "type": "uint256"
        }
      ],
      "name": "vote",
      "outputs": [],
      "stateMutability": "nonpayable",
      "type": "function"
    },
    {
      "inputs": [],
      "name": "end",
      "outputs": [],
      "stateMutability": "nonpayable",
      "type": "function"
    }
  ],
  "bytecode": "0x60806040523480156200001157600080fd5b50604051620019ec380380620019ec833981810160405281019062000037919062000515565b336000806101000a81548173ffffffffffffffffffffffffffffffffffffffff021916908373ffffffffffffffffffffffffffffffffffffffff16021790555084600190805190602001906200008f92919062000263565b508360029080519060200190620000a892919062000263565b50600560405180604001604052808581526020016000815250908060018154018082558091505060019003906000526020600020906002020160009091909190915060008201518160000190805190602001906200010892919062000263565b50602082015181600101555050600560405180604001604052808481526020016000815250908060018154018082558091505060019003906000526020600020906002020160009091909190915060008201518160000190805190602001906200017492919062000263565b50602082015181600101555050600073ffffffffffffffffffffffffffffffffffffffff168173ffffffffffffffffffffffffffffffffffffffff16141580156200020d5750600073ffffffffffffffffffffffffffffffffffffffff16600360009054906101000a900473ffffffffffffffffffffffffffffffffffffffff1673ffffffffffffffffffffffffffffffffffffffff16145b6200021757600080fd5b80600360006101000a81548173ffffffffffffffffffffffffffffffffffffffff021916908373ffffffffffffffffffffffffffffffffffffffff16021790555050505050506200067e565b828054620002719062000648565b90600052602060002090601f016020900481019282620002955760008555620002e1565b82601f10620002b057805160ff1916838001178555620002e1565b82800160010185558215620002e1579182015b82811115620002e0578251825591602001919060010190620002c3565b5b509050620002f09190620002f4565b5090565b5b808211156200030f576000816000905550600101620002f5565b5090565b6000604051905090565b600080fd5b600080fd5b600080fd5b600080fd5b6000601f19601f8301169050919050565b7f4e487b7100000000000000000000000000000000000000000000000000000000600052604160045260246000fd5b6200037c8262000331565b810181811067ffffffffffffffff821117156200039e576200039d62000342565b5b80604052505050565b6000620003b362000313565b9050620003c1828262000371565b919050565b600067ffffffffffffffff821115620003e457620003e362000342565b5b620003ef8262000331565b9050602081019050919050565b60005b838110156200041c578082015181840152602081019050620003ff565b838111156200042c576000848401525b50505050565b6000620004496200044384620003c6565b620003a7565b9050828152602081018484840111156200046857620004676200032c565b5b62000475848285620003fc565b509392505050565b600082601f83011262000495576200049462000327565b5b8151620004a784826020860162000432565b91505092915050565b600073ffffffffffffffffffffffffffffffffffffffff82169050919050565b6000620004dd82620004b0565b9050919050565b620004ef81620004d0565b8114620004fb57600080fd5b50565b6000815190506200050f81620004e4565b92915050565b600080600080600060a086880312156200053457620005336200031d565b5b600086015167ffffffffffffffff81111562000555576200055462000322565b5b62000563888289016200047d565b955050602086015167ffffffffffffffff81111562000587576200058662000322565b5b62000595888289016200047d565b945050604086015167ffffffffffffffff811115620005b957620005b862000322565b5b620005c7888289016200047d565b935050606086015167ffffffffffffffff811115620005eb57620005ea62000322565b5b620005f9888289016200047d565b92505060806200060c88828901620004fe565b9150509295509295909350565b7f4e487b7100000000000000000000000000000000000000000000000000000000600052602260045260246000fd5b600060028204905060018216806200066157607f821691505b6020821081141562000678576200067762000619565b5b50919050565b61135e806200068e6000396000f3fe608060405234801561001057600080fd5b50600436106100cf5760003560e01c806385e8e7a71161008c578063b688a36311610066578063b688a36314610205578063d02cf3cf1461020f578063efbe1c1c1461022d578063fc0c546a14610237576100cf565b806385e8e7a7146101975780638da5cb5b146101b5578063a3ec138d146101d3576100cf565b80630121b93f146100d457806306a49fce146100f05780630d15fd771461010e5780633477ee2e1461012c578063462e91ec1461015d5780637284e41614610179575b600080fd5b6100ee60048036038101906100e99190610b14565b610255565b005b6100f8610470565b6040516101059190610ce8565b60405180910390f35b61011661056b565b6040516101239190610d19565b60405180910390f35b61014660048036038101906101419190610b14565b610571565b604051610154929190610d7e565b60405180910390f35b61017760048036038101906101729190610ee3565b61062d565b005b6101816106f2565b60405161018e9190610f2c565b60405180910390f35b61019f610780565b6040516101ac9190610f2c565b60405180910390f35b6101bd61080e565b6040516101ca9190610f8f565b60405180910390f35b6101ed60048036038101906101e89190610fd6565b610832565b6040516101fc9392919061101e565b60405180910390f35b61020d610876565b005b610217610963565b6040516102249190610d19565b60405180910390f35b610235610970565b005b61023f610a01565b60405161024c91906110b4565b60405180910390f35b600460003373ffffffffffffffffffffffffffffffffffffffff1673ffffffffffffffffffffffffffffffffffffffff16815260200190815260200160002060000160019054906101000a900460ff16156102e5576040517f08c379a00000000000000000000000000000000000000000000000000000000081526004016102dc9061111b565b60405180910390fd5b600460003373ffffffffffffffffffffffffffffffffffffffff1673ffffffffffffffffffffffffffffffffffffffff16815260200190815260200160002060000160009054906101000a900460ff16610374576040517f08c379a000000000000000000000000000000000000000000000000000000000815260040161036b90611187565b60405180910390fd5b80600460003373ffffffffffffffffffffffffffffffffffffffff1673ffffffffffffffffffffffffffffffffffffffff168152602001908152602001600020600101819055506001600460003373ffffffffffffffffffffffffffffffffffffffff1673ffffffffffffffffffffffffffffffffffffffff16815260200190815260200160002060000160016101000a81548160ff02191690831515021790555060016005828154811061042c5761042b6111a7565b5b9060005260206000209060020201600101600082825461044c9190611205565b925050819055506001600660008282546104669190611205565b9250508190555050565b60606005805480602002602001604051908101604052809291908181526020016000905b8282101561056257838290600052602060002090600202016040518060400160405290816000820180546104c79061128a565b80601f01602080910402602001604051908101604052809291908181526020018280546104f39061128a565b80156105405780601f1061051557610100808354040283529160200191610540565b820191906000526020600020905b81548152906001019060200180831161052357829003601f168201915b5050505050815260200160018201548152505081526020019060010190610494565b50505050905090565b60065481565b6005818154811061058157600080fd5b90600052602060002090600202016000915090508060000180546105a49061128a565b80601f01602080910402602001604051908101604052809291908181526020018280546105d09061128a565b801561061d5780601f106105f25761010080835404028352916020019161061d565b820191906000526020600020905b81548152906001019060200180831161060057829003601f168201915b5050505050908060010154905082565b60008054906101000a900473ffffffffffffffffffffffffffffffffffffffff1673ffffffffffffffffffffffffffffffffffffffff163373ffffffffffffffffffffffffffffffffffffffff161461068557600080fd5b600560405180604001604052808381526020016000815250908060018154018082558091505060019003906000526020600020906002020160009091909190915060008201518160000190805190602001906106e2929190610a27565b5060208201518160010155505050565b600280546106ff9061128a565b80601f016020809104026020016040519081016040528092919081815260200182805461072b9061128a565b80156107785780601f1061074d57610100808354040283529160200191610778565b820191906000526020600020905b81548152906001019060200180831161075b57829003601f168201915b505050505081565b6001805461078d9061128a565b80601f01602080910402602001604051908101604052809291908181526020018280546107b99061128a565b80156108065780601f106107db57610100808354040283529160200191610806565b820191906000526020600020905b8154815290600101906020018083116107e957829003601f168201915b505050505081565b60008054906101000a900473ffffffffffffffffffffffffffffffffffffffff1681565b60046020528060005260406000206000915090508060000160009054906101000a900460ff16908060000160019054906101000a900460ff16908060010154905083565b600460003373ffffffffffffffffffffffffffffffffffffffff1673ffffffffffffffffffffffffffffffffffffffff16815260200190815260200160002060000160009054906101000a900460ff1615610906576040517f08c379a00000000000000000000000000000000000000000000000000000000081526004016108fd90611308565b60405180910390fd5b6001600460003373ffffffffffffffffffffffffffffffffffffffff1673ffffffffffffffffffffffffffffffffffffffff16815260200190815260200160002060000160006101000a81548160ff021916908315150217905550565b6000600580549050905090565b60008054906101000a900473ffffffffffffffffffffffffffffffffffffffff1673ffffffffffffffffffffffffffffffffffffffff163373ffffffffffffffffffffffffffffffffffffffff16146109c857600080fd5b60008054906101000a900473ffffffffffffffffffffffffffffffffffffffff1673ffffffffffffffffffffffffffffffffffffffff16ff5b600360009054906101000a900473ffffffffffffffffffffffffffffffffffffffff1681565b828054610a339061128a565b90600052602060002090601f016020900481019282610a555760008555610a9c565b82601f10610a6e57805160ff1916838001178555610a9c565b82800160010185558215610a9c579182015b82811115610a9b578251825591602001919060010190610a80565b5b509050610aa99190610aad565b5090565b5b80821115610ac6576000816000905550600101610aae565b5090565b6000604051905090565b600080fd5b600080fd5b6000819050919050565b610af181610ade565b8114610afc57600080fd5b50565b600081359050610b0e81610ae8565b92915050565b600060208284031215610b2a57610b29610ad4565b5b6000610b3884828501610aff565b91505092915050565b600081519050919050565b600082825260208201905092915050565b6000819050602082019050919050565b600081519050919050565b600082825260208201905092915050565b60005b83811015610ba7578082015181840152602081019050610b8c565b83811115610bb6576000848401525b50505050565b6000601f19601f8301169050919050565b6000610bd882610b6d565b610be28185610b78565b9350610bf2818560208601610b89565b610bfb81610bbc565b840191505092915050565b610c0f81610ade565b82525050565b60006040830160008301518482036000860152610c328282610bcd565b9150506020830151610c476020860182610c06565b508091505092915050565b6000610c5e8383610c15565b905092915050565b6000602082019050919050565b6000610c7e82610b41565b610c888185610b4c565b935083602082028501610c9a85610b5d565b8060005b85811015610cd65784840389528151610cb78582610c52565b9450610cc283610c66565b925060208a01995050600181019050610c9e565b50829750879550505050505092915050565b60006020820190508181036000830152610d028184610c73565b905092915050565b610d1381610ade565b82525050565b6000602082019050610d2e6000830184610d0a565b92915050565b600082825260208201905092915050565b6000610d5082610b6d565b610d5a8185610d34565b9350610d6a818560208601610b89565b610d7381610bbc565b840191505092915050565b60006040820190508181036000830152610d988185610d45565b9050610da76020830184610d0a565b9392505050565b600080fd5b600080fd5b7f4e487b7100000000000000000000000000000000000000000000000000000000600052604160045260246000fd5b610df082610bbc565b810181811067ffffffffffffffff82111715610e0f57610e0e610db8565b5b80604052505050565b6000610e22610aca565b9050610e2e8282610de7565b919050565b600067ffffffffffffffff821115610e4e57610e4d610db8565b5b610e5782610bbc565b9050602081019050919050565b82818337600083830152505050565b6000610e86610e8184610e33565b610e18565b905082815260208101848484011115610ea257610ea1610db3565b5b610ead848285610e64565b509392505050565b600082601f830112610eca57610ec9610dae565b5b8135610eda848260208601610e73565b91505092915050565b600060208284031215610ef957610ef8610ad4565b5b600082013567ffffffffffffffff811115610f1757610f16610ad9565b5b610f2384828501610eb5565b91505092915050565b60006020820190508181036000830152610f468184610d45565b905092915050565b600073ffffffffffffffffffffffffffffffffffffffff82169050919050565b6000610f7982610f4e565b9050919050565b610f8981610f6e565b82525050565b6000602082019050610fa46000830184610f80565b92915050565b610fb381610f6e565b8114610fbe57600080fd5b50565b600081359050610fd081610faa565b92915050565b600060208284031215610fec57610feb610ad4565b5b6000610ffa84828501610fc1565b91505092915050565b60008115159050919050565b61101881611003565b82525050565b6000606082019050611033600083018661100f565b611040602083018561100f565b61104d6040830184610d0a565b949350505050565b6000819050919050565b600061107a61107561107084610f4e565b611055565b610f4e565b9050919050565b600061108c8261105f565b9050919050565b600061109e82611081565b9050919050565b6110ae81611093565b82525050565b60006020820190506110c960008301846110a5565b92915050565b7f566f74656420616c726561647921000000000000000000000000000000000000600082015250565b6000611105600e83610d34565b9150611110826110cf565b602082019050919050565b60006020820190508181036000830152611134816110f8565b9050919050565b7f4a6f696e20697420666972737421000000000000000000000000000000000000600082015250565b6000611171600e83610d34565b915061117c8261113b565b602082019050919050565b600060208201905081810360008301526111a081611164565b9050919050565b7f4e487b7100000000000000000000000000000000000000000000000000000000600052603260045260246000fd5b7f4e487b7100000000000000000000000000000000000000000000000000000000600052601160045260246000fd5b600061121082610ade565b915061121b83610ade565b9250827fffffffffffffffffffffffffffffffffffffffffffffffffffffffffffffffff038211156112505761124f6111d6565b5b828201905092915050565b7f4e487b7100000000000000000000000000000000000000000000000000000000600052602260045260246000fd5b600060028204905060018216806112a257607f821691505b602082108114156112b6576112b561125b565b5b50919050565b7f4a6f696e656420616c7265616479210000000000000000000000000000000000600082015250565b60006112f2600f83610d34565b91506112fd826112bc565b602082019050919050565b60006020820190508181036000830152611321816112e5565b905091905056fea26469706673582212202a56c701dea7e552d9686d3092bc3869e4c39b588b60958f6d487f415c9eafe764736f6c634300080a0033",
  "immutableReferences": {},
  "source": "// SPDX-License-Identifier: GPL-3.0\npragma solidity >=0.7.0 <0.9.0;\nimport \"./VoteToken.sol\";\n\ncontract Poll {\n    \n    //create own data type for a poll candidate\n    struct Candidate {\n        string Name;\n        uint256 VoteCount;\n    }\n    \n    //create own data type for a voter\n    struct Voter {\n        bool joined;\n        bool voted;\n        uint256 vote;\n    }\n    \n    //the contract owner will be the deployer of the contract\n    address public owner;\n    //name of the poll\n    string public electionName;\n    //poll description\n    string public description;\n    //the ERC20 tokens used for voting\n    VoteToken public token;\n    //define key-value voters map, i.e. each voter has an address\n    mapping(address => Voter) public voters;\n    //array of candidate types\n    Candidate [] public candidates;\n    //count of all votes for the current poll\n    uint256 public totalVotes;\n    \n    \n    //when invoked, restrict function usage only to contract owner\n    modifier ownerOnly () {\n        require(msg.sender==owner);\n        //execute function if owner condition was met\n        _;\n    }\n\n    //the poll will have these attributes by default\n    constructor(string memory _name, string memory _description, string memory _candidate1, string memory _candidate2, address _token) {  \n        owner = msg.sender;\n        electionName = _name;\n        description = _description;\n\n        //by default 2 candidates\n        candidates.push(Candidate(_candidate1,0));\n        candidates.push(Candidate(_candidate2,0));\n        \n        //make sure no zero address is used to create the vote token\n        require(_token != address(0) && address(token) == address(0));\n        \n        // vote tokens will be ERC20 tokens; instantiating one\n        token = VoteToken(_token);\n    }  \n    \n    // add any other candidate than the default 2 \n    function addCandidate(string memory _name) ownerOnly public {\n        candidates.push(Candidate(_name,0));\n    }\n    \n    //get the number of candidates\n    function getNumCandidate() public view returns(uint256) {\n        return candidates.length;\n    }\n\n    /* Can return the entire array of Candidates, but according to Solidity this should be \n       avoided for arrays that can grow indefinitely in length. */\n    function getCandidates() public view returns(Candidate [] memory){\n        return candidates;\n    }\n    \n    //join a poll; only once per voter\n    function join() public{\n        require(\n            !voters[msg.sender].joined,\n            \"Joined already!\"\n            );\n        \n        //remembering this address joined\n        voters[msg.sender].joined=true;    \n    }\n    \n    //voting\n    function vote(uint256 _voteIndex) public{\n        require(\n            !voters[msg.sender].voted,\n            \"Voted already!\"\n            );\n        require(\n            voters[msg.sender].joined,\n            \"Join it first!\"\n            );\n        \n        //voting for candidate at _voteIndex\n        voters[msg.sender].vote=_voteIndex;\n        //now voted\n        voters[msg.sender].voted=true;\n        //candidate at _voteIndex got one vote\n        candidates[_voteIndex].VoteCount+=1;\n        //total votes for this poll\n        totalVotes+=1;\n    }    \n    \n    //end the poll, possible only if done by poll owner\n    function end() ownerOnly public {\n        //destroys this contract\n        selfdestruct(payable(owner));\n        //if the contract had any ether currently, any remaining ethers\n        //would be transferred to the owner address\n    }\n}\n",
  "sourcePath": "/Users/solveighelland/blockchain-programming/contracts/Poll.sol",
  "compiler": {
    "name": "solc",
    "version": "0.8.10+commit.fc410830.Emscripten.clang"
  },
  "schemaVersion": "3.4.3",
  "updatedAt": "2021-12-08T17:56:44.196Z",
  "devdoc": {
    "kind": "dev",
    "methods": {},
    "version": 1
  },
  "userdoc": {
    "kind": "user",
    "methods": {},
    "version": 1
  }
}