{
  "contractName": "Poll",
  "abi": [
    {
      "inputs": [
        {
          "internalType": "string",
          "name": "_name",
          "type": "string"
        },
        {
          "internalType": "string",
          "name": "_description",
          "type": "string"
        },
        {
          "internalType": "string",
          "name": "_candidate1",
          "type": "string"
        },
        {
          "internalType": "string",
          "name": "_candidate2",
          "type": "string"
        },
        {
          "internalType": "address",
          "name": "_token",
          "type": "address"
        }
      ],
      "stateMutability": "nonpayable",
      "type": "constructor"
    },
    {
      "inputs": [
        {
          "internalType": "uint256",
          "name": "",
          "type": "uint256"
        }
      ],
      "name": "candidates",
      "outputs": [
        {
          "internalType": "string",
          "name": "Name",
          "type": "string"
        },
        {
          "internalType": "uint256",
          "name": "VoteCount",
          "type": "uint256"
        }
      ],
      "stateMutability": "view",
      "type": "function",
      "constant": true
    },
    {
      "inputs": [],
      "name": "description",
      "outputs": [
        {
          "internalType": "string",
          "name": "",
          "type": "string"
        }
      ],
      "stateMutability": "view",
      "type": "function",
      "constant": true
    },
    {
      "inputs": [],
      "name": "electionName",
      "outputs": [
        {
          "internalType": "string",
          "name": "",
          "type": "string"
        }
      ],
      "stateMutability": "view",
      "type": "function",
      "constant": true
    },
    {
      "inputs": [],
      "name": "owner",
      "outputs": [
        {
          "internalType": "address",
          "name": "",
          "type": "address"
        }
      ],
      "stateMutability": "view",
      "type": "function",
      "constant": true
    },
    {
      "inputs": [],
      "name": "token",
      "outputs": [
        {
          "internalType": "contract VoteToken",
          "name": "",
          "type": "address"
        }
      ],
      "stateMutability": "view",
      "type": "function",
      "constant": true
    },
    {
      "inputs": [],
      "name": "totalVotes",
      "outputs": [
        {
          "internalType": "uint256",
          "name": "",
          "type": "uint256"
        }
      ],
      "stateMutability": "view",
      "type": "function",
      "constant": true
    },
    {
      "inputs": [
        {
          "internalType": "address",
          "name": "",
          "type": "address"
        }
      ],
      "name": "voters",
      "outputs": [
        {
          "internalType": "bool",
          "name": "joined",
          "type": "bool"
        },
        {
          "internalType": "bool",
          "name": "voted",
          "type": "bool"
        },
        {
          "internalType": "uint256",
          "name": "vote",
          "type": "uint256"
        }
      ],
      "stateMutability": "view",
      "type": "function",
      "constant": true
    },
    {
      "inputs": [
        {
          "internalType": "string",
          "name": "_name",
          "type": "string"
        }
      ],
      "name": "addCandidate",
      "outputs": [],
      "stateMutability": "nonpayable",
      "type": "function"
    },
    {
      "inputs": [],
      "name": "getNumCandidate",
      "outputs": [
        {
          "internalType": "uint256",
          "name": "",
          "type": "uint256"
        }
      ],
      "stateMutability": "view",
      "type": "function",
      "constant": true
    },
    {
      "inputs": [],
      "name": "getCandidates",
      "outputs": [
        {
          "components": [
            {
              "internalType": "string",
              "name": "Name",
              "type": "string"
            },
            {
              "internalType": "uint256",
              "name": "VoteCount",
              "type": "uint256"
            }
          ],
          "internalType": "struct Poll.Candidate[]",
          "name": "",
          "type": "tuple[]"
        }
      ],
      "stateMutability": "view",
      "type": "function",
      "constant": true
    },
    {
      "inputs": [],
      "name": "join",
      "outputs": [],
      "stateMutability": "nonpayable",
      "type": "function"
    },
    {
      "inputs": [
        {
          "internalType": "uint256",
          "name": "_voteIndex",
          "type": "uint256"
        }
      ],
      "name": "vote",
      "outputs": [],
      "stateMutability": "nonpayable",
      "type": "function"
    },
    {
      "inputs": [],
      "name": "end",
      "outputs": [],
      "stateMutability": "nonpayable",
      "type": "function"
    }
  ],
  "bytecode": "0x60806040523480156200001157600080fd5b5060405162001cf038038062001cf0833981810160405281019062000037919062000515565b336000806101000a81548173ffffffffffffffffffffffffffffffffffffffff021916908373ffffffffffffffffffffffffffffffffffffffff16021790555084600190805190602001906200008f92919062000263565b508360029080519060200190620000a892919062000263565b50600560405180604001604052808581526020016000815250908060018154018082558091505060019003906000526020600020906002020160009091909190915060008201518160000190805190602001906200010892919062000263565b50602082015181600101555050600560405180604001604052808481526020016000815250908060018154018082558091505060019003906000526020600020906002020160009091909190915060008201518160000190805190602001906200017492919062000263565b50602082015181600101555050600073ffffffffffffffffffffffffffffffffffffffff168173ffffffffffffffffffffffffffffffffffffffff16141580156200020d5750600073ffffffffffffffffffffffffffffffffffffffff16600360009054906101000a900473ffffffffffffffffffffffffffffffffffffffff1673ffffffffffffffffffffffffffffffffffffffff16145b6200021757600080fd5b80600360006101000a81548173ffffffffffffffffffffffffffffffffffffffff021916908373ffffffffffffffffffffffffffffffffffffffff16021790555050505050506200067e565b828054620002719062000648565b90600052602060002090601f016020900481019282620002955760008555620002e1565b82601f10620002b057805160ff1916838001178555620002e1565b82800160010185558215620002e1579182015b82811115620002e0578251825591602001919060010190620002c3565b5b509050620002f09190620002f4565b5090565b5b808211156200030f576000816000905550600101620002f5565b5090565b6000604051905090565b600080fd5b600080fd5b600080fd5b600080fd5b6000601f19601f8301169050919050565b7f4e487b7100000000000000000000000000000000000000000000000000000000600052604160045260246000fd5b6200037c8262000331565b810181811067ffffffffffffffff821117156200039e576200039d62000342565b5b80604052505050565b6000620003b362000313565b9050620003c1828262000371565b919050565b600067ffffffffffffffff821115620003e457620003e362000342565b5b620003ef8262000331565b9050602081019050919050565b60005b838110156200041c578082015181840152602081019050620003ff565b838111156200042c576000848401525b50505050565b6000620004496200044384620003c6565b620003a7565b9050828152602081018484840111156200046857620004676200032c565b5b62000475848285620003fc565b509392505050565b600082601f83011262000495576200049462000327565b5b8151620004a784826020860162000432565b91505092915050565b600073ffffffffffffffffffffffffffffffffffffffff82169050919050565b6000620004dd82620004b0565b9050919050565b620004ef81620004d0565b8114620004fb57600080fd5b50565b6000815190506200050f81620004e4565b92915050565b600080600080600060a086880312156200053457620005336200031d565b5b600086015167ffffffffffffffff81111562000555576200055462000322565b5b62000563888289016200047d565b955050602086015167ffffffffffffffff81111562000587576200058662000322565b5b62000595888289016200047d565b945050604086015167ffffffffffffffff811115620005b957620005b862000322565b5b620005c7888289016200047d565b935050606086015167ffffffffffffffff811115620005eb57620005ea62000322565b5b620005f9888289016200047d565b92505060806200060c88828901620004fe565b9150509295509295909350565b7f4e487b7100000000000000000000000000000000000000000000000000000000600052602260045260246000fd5b600060028204905060018216806200066157607f821691505b6020821081141562000678576200067762000619565b5b50919050565b611662806200068e6000396000f3fe608060405234801561001057600080fd5b50600436106100cf5760003560e01c806385e8e7a71161008c578063b688a36311610066578063b688a36314610205578063d02cf3cf1461020f578063efbe1c1c1461022d578063fc0c546a14610237576100cf565b806385e8e7a7146101975780638da5cb5b146101b5578063a3ec138d146101d3576100cf565b80630121b93f146100d457806306a49fce146100f05780630d15fd771461010e5780633477ee2e1461012c578063462e91ec1461015d5780637284e41614610179575b600080fd5b6100ee60048036038101906100e99190610c9f565b610255565b005b6100f86105fb565b6040516101059190610e73565b60405180910390f35b6101166106f6565b6040516101239190610ea4565b60405180910390f35b61014660048036038101906101419190610c9f565b6106fc565b604051610154929190610f09565b60405180910390f35b6101776004803603810190610172919061106e565b6107b8565b005b61018161087d565b60405161018e91906110b7565b60405180910390f35b61019f61090b565b6040516101ac91906110b7565b60405180910390f35b6101bd610999565b6040516101ca919061111a565b60405180910390f35b6101ed60048036038101906101e89190611161565b6109bd565b6040516101fc939291906111a9565b60405180910390f35b61020d610a01565b005b610217610aee565b6040516102249190610ea4565b60405180910390f35b610235610afb565b005b61023f610b8c565b60405161024c919061123f565b60405180910390f35b600460003373ffffffffffffffffffffffffffffffffffffffff1673ffffffffffffffffffffffffffffffffffffffff16815260200190815260200160002060000160019054906101000a900460ff16156102e5576040517f08c379a00000000000000000000000000000000000000000000000000000000081526004016102dc906112a6565b60405180910390fd5b600460003373ffffffffffffffffffffffffffffffffffffffff1673ffffffffffffffffffffffffffffffffffffffff16815260200190815260200160002060000160009054906101000a900460ff16610374576040517f08c379a000000000000000000000000000000000000000000000000000000000815260040161036b90611312565b60405180910390fd5b6001600360009054906101000a900473ffffffffffffffffffffffffffffffffffffffff1673ffffffffffffffffffffffffffffffffffffffff166370a08231336040518263ffffffff1660e01b81526004016103d1919061111a565b602060405180830381865afa1580156103ee573d6000803e3d6000fd5b505050506040513d601f19601f820116820180604052508101906104129190611347565b1015610453576040517f08c379a000000000000000000000000000000000000000000000000000000000815260040161044a906113c0565b60405180910390fd5b600360009054906101000a900473ffffffffffffffffffffffffffffffffffffffff1673ffffffffffffffffffffffffffffffffffffffff166323b872dd333060016040518463ffffffff1660e01b81526004016104b39392919061141b565b6020604051808303816000875af11580156104d2573d6000803e3d6000fd5b505050506040513d601f19601f820116820180604052508101906104f6919061147e565b6104ff57600080fd5b80600460003373ffffffffffffffffffffffffffffffffffffffff1673ffffffffffffffffffffffffffffffffffffffff168152602001908152602001600020600101819055506001600460003373ffffffffffffffffffffffffffffffffffffffff1673ffffffffffffffffffffffffffffffffffffffff16815260200190815260200160002060000160016101000a81548160ff0219169083151502179055506001600582815481106105b7576105b66114ab565b5b906000526020600020906002020160010160008282546105d79190611509565b925050819055506001600660008282546105f19190611509565b9250508190555050565b60606005805480602002602001604051908101604052809291908181526020016000905b828210156106ed57838290600052602060002090600202016040518060400160405290816000820180546106529061158e565b80601f016020809104026020016040519081016040528092919081815260200182805461067e9061158e565b80156106cb5780601f106106a0576101008083540402835291602001916106cb565b820191906000526020600020905b8154815290600101906020018083116106ae57829003601f168201915b505050505081526020016001820154815250508152602001906001019061061f565b50505050905090565b60065481565b6005818154811061070c57600080fd5b906000526020600020906002020160009150905080600001805461072f9061158e565b80601f016020809104026020016040519081016040528092919081815260200182805461075b9061158e565b80156107a85780601f1061077d576101008083540402835291602001916107a8565b820191906000526020600020905b81548152906001019060200180831161078b57829003601f168201915b5050505050908060010154905082565b60008054906101000a900473ffffffffffffffffffffffffffffffffffffffff1673ffffffffffffffffffffffffffffffffffffffff163373ffffffffffffffffffffffffffffffffffffffff161461081057600080fd5b6005604051806040016040528083815260200160008152509080600181540180825580915050600190039060005260206000209060020201600090919091909150600082015181600001908051906020019061086d929190610bb2565b5060208201518160010155505050565b6002805461088a9061158e565b80601f01602080910402602001604051908101604052809291908181526020018280546108b69061158e565b80156109035780601f106108d857610100808354040283529160200191610903565b820191906000526020600020905b8154815290600101906020018083116108e657829003601f168201915b505050505081565b600180546109189061158e565b80601f01602080910402602001604051908101604052809291908181526020018280546109449061158e565b80156109915780601f1061096657610100808354040283529160200191610991565b820191906000526020600020905b81548152906001019060200180831161097457829003601f168201915b505050505081565b60008054906101000a900473ffffffffffffffffffffffffffffffffffffffff1681565b60046020528060005260406000206000915090508060000160009054906101000a900460ff16908060000160019054906101000a900460ff16908060010154905083565b600460003373ffffffffffffffffffffffffffffffffffffffff1673ffffffffffffffffffffffffffffffffffffffff16815260200190815260200160002060000160009054906101000a900460ff1615610a91576040517f08c379a0000000000000000000000000000000000000000000000000000000008152600401610a889061160c565b60405180910390fd5b6001600460003373ffffffffffffffffffffffffffffffffffffffff1673ffffffffffffffffffffffffffffffffffffffff16815260200190815260200160002060000160006101000a81548160ff021916908315150217905550565b6000600580549050905090565b60008054906101000a900473ffffffffffffffffffffffffffffffffffffffff1673ffffffffffffffffffffffffffffffffffffffff163373ffffffffffffffffffffffffffffffffffffffff1614610b5357600080fd5b60008054906101000a900473ffffffffffffffffffffffffffffffffffffffff1673ffffffffffffffffffffffffffffffffffffffff16ff5b600360009054906101000a900473ffffffffffffffffffffffffffffffffffffffff1681565b828054610bbe9061158e565b90600052602060002090601f016020900481019282610be05760008555610c27565b82601f10610bf957805160ff1916838001178555610c27565b82800160010185558215610c27579182015b82811115610c26578251825591602001919060010190610c0b565b5b509050610c349190610c38565b5090565b5b80821115610c51576000816000905550600101610c39565b5090565b6000604051905090565b600080fd5b600080fd5b6000819050919050565b610c7c81610c69565b8114610c8757600080fd5b50565b600081359050610c9981610c73565b92915050565b600060208284031215610cb557610cb4610c5f565b5b6000610cc384828501610c8a565b91505092915050565b600081519050919050565b600082825260208201905092915050565b6000819050602082019050919050565b600081519050919050565b600082825260208201905092915050565b60005b83811015610d32578082015181840152602081019050610d17565b83811115610d41576000848401525b50505050565b6000601f19601f8301169050919050565b6000610d6382610cf8565b610d6d8185610d03565b9350610d7d818560208601610d14565b610d8681610d47565b840191505092915050565b610d9a81610c69565b82525050565b60006040830160008301518482036000860152610dbd8282610d58565b9150506020830151610dd26020860182610d91565b508091505092915050565b6000610de98383610da0565b905092915050565b6000602082019050919050565b6000610e0982610ccc565b610e138185610cd7565b935083602082028501610e2585610ce8565b8060005b85811015610e615784840389528151610e428582610ddd565b9450610e4d83610df1565b925060208a01995050600181019050610e29565b50829750879550505050505092915050565b60006020820190508181036000830152610e8d8184610dfe565b905092915050565b610e9e81610c69565b82525050565b6000602082019050610eb96000830184610e95565b92915050565b600082825260208201905092915050565b6000610edb82610cf8565b610ee58185610ebf565b9350610ef5818560208601610d14565b610efe81610d47565b840191505092915050565b60006040820190508181036000830152610f238185610ed0565b9050610f326020830184610e95565b9392505050565b600080fd5b600080fd5b7f4e487b7100000000000000000000000000000000000000000000000000000000600052604160045260246000fd5b610f7b82610d47565b810181811067ffffffffffffffff82111715610f9a57610f99610f43565b5b80604052505050565b6000610fad610c55565b9050610fb98282610f72565b919050565b600067ffffffffffffffff821115610fd957610fd8610f43565b5b610fe282610d47565b9050602081019050919050565b82818337600083830152505050565b600061101161100c84610fbe565b610fa3565b90508281526020810184848401111561102d5761102c610f3e565b5b611038848285610fef565b509392505050565b600082601f83011261105557611054610f39565b5b8135611065848260208601610ffe565b91505092915050565b60006020828403121561108457611083610c5f565b5b600082013567ffffffffffffffff8111156110a2576110a1610c64565b5b6110ae84828501611040565b91505092915050565b600060208201905081810360008301526110d18184610ed0565b905092915050565b600073ffffffffffffffffffffffffffffffffffffffff82169050919050565b6000611104826110d9565b9050919050565b611114816110f9565b82525050565b600060208201905061112f600083018461110b565b92915050565b61113e816110f9565b811461114957600080fd5b50565b60008135905061115b81611135565b92915050565b60006020828403121561117757611176610c5f565b5b60006111858482850161114c565b91505092915050565b60008115159050919050565b6111a38161118e565b82525050565b60006060820190506111be600083018661119a565b6111cb602083018561119a565b6111d86040830184610e95565b949350505050565b6000819050919050565b60006112056112006111fb846110d9565b6111e0565b6110d9565b9050919050565b6000611217826111ea565b9050919050565b60006112298261120c565b9050919050565b6112398161121e565b82525050565b60006020820190506112546000830184611230565b92915050565b7f566f74656420616c726561647921000000000000000000000000000000000000600082015250565b6000611290600e83610ebf565b915061129b8261125a565b602082019050919050565b600060208201905081810360008301526112bf81611283565b9050919050565b7f4a6f696e20697420666972737421000000000000000000000000000000000000600082015250565b60006112fc600e83610ebf565b9150611307826112c6565b602082019050919050565b6000602082019050818103600083015261132b816112ef565b9050919050565b60008151905061134181610c73565b92915050565b60006020828403121561135d5761135c610c5f565b5b600061136b84828501611332565b91505092915050565b7f4e6f7420656e6f7567682062616c616e63650000000000000000000000000000600082015250565b60006113aa601283610ebf565b91506113b582611374565b602082019050919050565b600060208201905081810360008301526113d98161139d565b9050919050565b6000819050919050565b60006114056114006113fb846113e0565b6111e0565b610c69565b9050919050565b611415816113ea565b82525050565b6000606082019050611430600083018661110b565b61143d602083018561110b565b61144a604083018461140c565b949350505050565b61145b8161118e565b811461146657600080fd5b50565b60008151905061147881611452565b92915050565b60006020828403121561149457611493610c5f565b5b60006114a284828501611469565b91505092915050565b7f4e487b7100000000000000000000000000000000000000000000000000000000600052603260045260246000fd5b7f4e487b7100000000000000000000000000000000000000000000000000000000600052601160045260246000fd5b600061151482610c69565b915061151f83610c69565b9250827fffffffffffffffffffffffffffffffffffffffffffffffffffffffffffffffff03821115611554576115536114da565b5b828201905092915050565b7f4e487b7100000000000000000000000000000000000000000000000000000000600052602260045260246000fd5b600060028204905060018216806115a657607f821691505b602082108114156115ba576115b961155f565b5b50919050565b7f4a6f696e656420616c7265616479210000000000000000000000000000000000600082015250565b60006115f6600f83610ebf565b9150611601826115c0565b602082019050919050565b60006020820190508181036000830152611625816115e9565b905091905056fea2646970667358221220b58ecdc1ad77ec42dafa430bfb14a7e3598c770481d1591f08f963bc4a995f8a64736f6c634300080a0033",
  "immutableReferences": {},
  "source": "// SPDX-License-Identifier: GPL-3.0\npragma solidity >=0.7.0 <0.9.0;\nimport \"./VoteToken.sol\";\n\ncontract Poll {\n    \n    //create own data type for a poll candidate\n    struct Candidate {\n        string Name;\n        uint256 VoteCount;\n    }\n    \n    //create own data type for a voter\n    struct Voter {\n        bool joined;\n        bool voted;\n        uint256 vote;\n    }\n    \n    //the contract owner will be the deployer of the contract\n    address public owner;\n    //name of the poll\n    string public electionName;\n    //poll description\n    string public description;\n    //the ERC20 tokens used for voting\n    VoteToken public token;\n    //define key-value voters map, i.e. each voter has an address\n    mapping(address => Voter) public voters;\n    //array of candidate types\n    Candidate [] public candidates;\n    //count of all votes for the current poll\n    uint256 public totalVotes;\n    \n    \n    //when invoked, restrict function usage only to contract owner\n    modifier ownerOnly () {\n        require(msg.sender==owner);\n        //execute function if owner condition was met\n        _;\n    }\n\n    //the constructor of the poll with a name, description, 2 candidates and the corresponding token address\n    constructor(string memory _name, string memory _description, string memory _candidate1, string memory _candidate2, address _token) {  \n        owner = msg.sender;\n        electionName = _name;\n        description = _description;\n\n        //by default 2 candidates\n        candidates.push(Candidate(_candidate1,0));\n        candidates.push(Candidate(_candidate2,0));\n        \n        //make sure no zero address is used to create the vote token\n        require(_token != address(0) && address(token) == address(0));\n        \n        //vote tokens will be ERC20 tokens; instantiating one\n        token = VoteToken(_token);\n    }  \n    \n    // add any other candidate than the default 2 \n    function addCandidate(string memory _name) ownerOnly public {\n        candidates.push(Candidate(_name,0));\n    }\n    \n    //get the number of candidates\n    function getNumCandidate() public view returns(uint256) {\n        return candidates.length;\n    }\n\n    /* Can return the entire array of Candidates, but according to Solidity this should be \n       avoided for arrays that can grow indefinitely in length. */\n    function getCandidates() public view returns(Candidate [] memory){\n        return candidates;\n    }\n    \n    //join a poll; only once per voter\n    function join() public{\n        require(\n            !voters[msg.sender].joined,\n            \"Joined already!\"\n            );\n        \n        //remembering this address joined\n        voters[msg.sender].joined=true;    \n    }\n    \n    //voting\n    function vote(uint256 _voteIndex) public{\n        //check if the sender has voted already + if he joined the poll \n        require(\n            !voters[msg.sender].voted,\n            \"Voted already!\"\n            );\n        require(\n            voters[msg.sender].joined,\n            \"Join it first!\"\n            );\n        \n        //voter needs one token to be able to vote\n        require(token.balanceOf(msg.sender) >= 1, \"Not enough balance\");\n        //cast the vote, by sending one token to the Voting contract address\n        require(token.transferFrom(msg.sender, address(this), 1));\n        \n        //voting for candidate at _voteIndex\n        voters[msg.sender].vote=_voteIndex;\n        //now voted\n        voters[msg.sender].voted=true;\n        //candidate at _voteIndex got one vote\n        candidates[_voteIndex].VoteCount+=1;\n        //total votes for this poll\n        totalVotes+=1;\n    }    \n    \n    //end the poll, possible only if done by poll owner\n    function end() ownerOnly public {\n        //destroys this contract\n        selfdestruct(payable(owner));\n        //if the contract had any ether currently, any remaining ethers\n        //would be transferred to the owner address\n    }\n}\n",
  "sourcePath": "/Users/solveighelland/blockchain-programming/contracts/Poll.sol",
  "compiler": {
    "name": "solc",
    "version": "0.8.10+commit.fc410830.Emscripten.clang"
  },
  "schemaVersion": "3.4.3",
  "updatedAt": "2021-12-10T18:38:55.689Z",
  "networkType": "ethereum",
  "devdoc": {
    "kind": "dev",
    "methods": {},
    "version": 1
  },
  "userdoc": {
    "kind": "user",
    "methods": {},
    "version": 1
  }
}