{
  "contractName": "VoteTokenFaucet",
  "abi": [
    {
      "inputs": [
        {
          "internalType": "contract VoteToken",
          "name": "token",
          "type": "address"
        }
      ],
      "stateMutability": "nonpayable",
      "type": "constructor"
    },
    {
      "inputs": [],
      "name": "mint",
      "outputs": [],
      "stateMutability": "nonpayable",
      "type": "function"
    }
  ],
  "bytecode": "0x608060405234801561001057600080fd5b506040516102e23803806102e2833981810160405281019061003291906100ed565b806000806101000a81548173ffffffffffffffffffffffffffffffffffffffff021916908373ffffffffffffffffffffffffffffffffffffffff1602179055505061011a565b600080fd5b600073ffffffffffffffffffffffffffffffffffffffff82169050919050565b60006100a88261007d565b9050919050565b60006100ba8261009d565b9050919050565b6100ca816100af565b81146100d557600080fd5b50565b6000815190506100e7816100c1565b92915050565b60006020828403121561010357610102610078565b5b6000610111848285016100d8565b91505092915050565b6101b9806101296000396000f3fe608060405234801561001057600080fd5b506004361061002b5760003560e01c80631249c58b14610030575b600080fd5b61003861003a565b005b60008054906101000a900473ffffffffffffffffffffffffffffffffffffffff1673ffffffffffffffffffffffffffffffffffffffff166340c10f193360016040518363ffffffff1660e01b815260040161009692919061015a565b600060405180830381600087803b1580156100b057600080fd5b505af11580156100c4573d6000803e3d6000fd5b50505050565b600073ffffffffffffffffffffffffffffffffffffffff82169050919050565b60006100f5826100ca565b9050919050565b610105816100ea565b82525050565b6000819050919050565b6000819050919050565b6000819050919050565b600061014461013f61013a8461010b565b61011f565b610115565b9050919050565b61015481610129565b82525050565b600060408201905061016f60008301856100fc565b61017c602083018461014b565b939250505056fea264697066735822122058176e7a6e90906705e4e5d6a116263c23e1cffe4f172f9677cb9993cafa6d2564736f6c634300080a0033",
  "immutableReferences": {},
  "source": "pragma solidity >=0.4.22 <0.9.0;\n\nimport \"./VoteToken.sol\";\n\ncontract VoteTokenFaucet {\n    VoteToken _token;\n\n    constructor(VoteToken token) {\n        _token = token;\n    }\n\n    function mint() public {\n        _token.mint(msg.sender, 1);\n    }\n}",
  "sourcePath": "/Users/solveighelland/blockchain-programming/contracts/VoteTokenFaucet.sol",
  "compiler": {
    "name": "solc",
    "version": "0.8.10+commit.fc410830.Emscripten.clang"
  },
  "schemaVersion": "3.4.3",
  "updatedAt": "2021-11-26T16:37:02.687Z",
  "devdoc": {
    "kind": "dev",
    "methods": {},
    "version": 1
  },
  "userdoc": {
    "kind": "user",
    "methods": {},
    "version": 1
  }
}