{
  "contractName": "Voting",
  "abi": [
    {
      "inputs": [
        {
          "internalType": "address",
          "name": "_token",
          "type": "address"
        }
      ],
      "stateMutability": "nonpayable",
      "type": "constructor"
    },
    {
      "anonymous": false,
      "inputs": [
        {
          "indexed": false,
          "internalType": "string",
          "name": "pollName",
          "type": "string"
        },
        {
          "indexed": false,
          "internalType": "string",
          "name": "description",
          "type": "string"
        },
        {
          "indexed": true,
          "internalType": "uint256",
          "name": "pollID",
          "type": "uint256"
        },
        {
          "indexed": true,
          "internalType": "address",
          "name": "creator",
          "type": "address"
        }
      ],
      "name": "_PollCreated",
      "type": "event"
    },
    {
      "inputs": [],
      "name": "pollID",
      "outputs": [
        {
          "internalType": "uint256",
          "name": "",
          "type": "uint256"
        }
      ],
      "stateMutability": "view",
      "type": "function",
      "constant": true
    },
    {
      "inputs": [
        {
          "internalType": "uint256",
          "name": "",
          "type": "uint256"
        }
      ],
      "name": "polls",
      "outputs": [
        {
          "internalType": "string",
          "name": "pollName",
          "type": "string"
        },
        {
          "internalType": "string",
          "name": "description",
          "type": "string"
        },
        {
          "internalType": "uint256",
          "name": "totalVotes",
          "type": "uint256"
        }
      ],
      "stateMutability": "view",
      "type": "function",
      "constant": true
    },
    {
      "inputs": [],
      "name": "token",
      "outputs": [
        {
          "internalType": "contract VoteToken",
          "name": "",
          "type": "address"
        }
      ],
      "stateMutability": "view",
      "type": "function",
      "constant": true
    },
    {
      "inputs": [
        {
          "internalType": "string",
          "name": "_pollName",
          "type": "string"
        },
        {
          "internalType": "string",
          "name": "_description",
          "type": "string"
        },
        {
          "internalType": "string",
          "name": "_candidate1",
          "type": "string"
        },
        {
          "internalType": "string",
          "name": "_candidate2",
          "type": "string"
        }
      ],
      "name": "createPoll",
      "outputs": [
        {
          "internalType": "uint256",
          "name": "",
          "type": "uint256"
        }
      ],
      "stateMutability": "nonpayable",
      "type": "function"
    },
    {
      "inputs": [
        {
          "internalType": "uint256",
          "name": "_pollID",
          "type": "uint256"
        }
      ],
      "name": "getNumCandidate",
      "outputs": [
        {
          "internalType": "uint256",
          "name": "",
          "type": "uint256"
        }
      ],
      "stateMutability": "view",
      "type": "function",
      "constant": true
    },
    {
      "inputs": [
        {
          "internalType": "uint256",
          "name": "_pollID",
          "type": "uint256"
        }
      ],
      "name": "getCandidates",
      "outputs": [
        {
          "components": [
            {
              "internalType": "string",
              "name": "name",
              "type": "string"
            },
            {
              "internalType": "uint256",
              "name": "voteCount",
              "type": "uint256"
            }
          ],
          "internalType": "struct Voting.Candidate[]",
          "name": "",
          "type": "tuple[]"
        }
      ],
      "stateMutability": "view",
      "type": "function",
      "constant": true
    },
    {
      "inputs": [
        {
          "internalType": "uint256",
          "name": "_pollID",
          "type": "uint256"
        }
      ],
      "name": "joinPoll",
      "outputs": [],
      "stateMutability": "nonpayable",
      "type": "function"
    },
    {
      "inputs": [
        {
          "internalType": "uint256",
          "name": "_pollID",
          "type": "uint256"
        },
        {
          "internalType": "uint256",
          "name": "_voteIndex",
          "type": "uint256"
        }
      ],
      "name": "vote",
      "outputs": [],
      "stateMutability": "nonpayable",
      "type": "function"
    }
  ],
  "bytecode": "0x60806040523480156200001157600080fd5b506040516200170d3803806200170d83398181016040528101906200003791906200017f565b600073ffffffffffffffffffffffffffffffffffffffff168173ffffffffffffffffffffffffffffffffffffffff1614158015620000c35750600073ffffffffffffffffffffffffffffffffffffffff16600260009054906101000a900473ffffffffffffffffffffffffffffffffffffffff1673ffffffffffffffffffffffffffffffffffffffff16145b620000cd57600080fd5b80600260006101000a81548173ffffffffffffffffffffffffffffffffffffffff021916908373ffffffffffffffffffffffffffffffffffffffff16021790555050620001b1565b600080fd5b600073ffffffffffffffffffffffffffffffffffffffff82169050919050565b600062000147826200011a565b9050919050565b62000159816200013a565b81146200016557600080fd5b50565b60008151905062000179816200014e565b92915050565b60006020828403121562000198576200019762000115565b5b6000620001a88482850162000168565b91505092915050565b61154c80620001c16000396000f3fe608060405234801561001057600080fd5b50600436106100885760003560e01c806383fc0f091161005b57806383fc0f091461013b578063ac2f007414610157578063b384abef14610189578063fc0c546a146101a557610088565b80633a4482911461008d5780633e39a7a5146100bd578063401bf084146100ed5780636d5b622f1461010b575b600080fd5b6100a760048036038101906100a29190610b9c565b6101c3565b6040516100b49190610bd8565b60405180910390f35b6100d760048036038101906100d29190610b9c565b6101e5565b6040516100e49190610d9a565b60405180910390f35b6100f56102f5565b6040516101029190610bd8565b60405180910390f35b61012560048036038101906101209190610ef1565b6102fb565b6040516101329190610bd8565b60405180910390f35b61015560048036038101906101509190610b9c565b6104c4565b005b610171600480360381019061016c9190610b9c565b6105d8565b60405161018093929190611012565b60405180910390f35b6101a3600480360381019061019e9190611057565b610712565b005b6101ad610a89565b6040516101ba9190611116565b60405180910390f35b6000806000838152602001908152602001600020600401805490509050919050565b6060600080838152602001908152602001600020600401805480602002602001604051908101604052809291908181526020016000905b828210156102ea578382906000526020600020906002020160405180604001604052908160008201805461024f90611160565b80601f016020809104026020016040519081016040528092919081815260200182805461027b90611160565b80156102c85780601f1061029d576101008083540402835291602001916102c8565b820191906000526020600020905b8154815290600101906020018083116102ab57829003601f168201915b505050505081526020016001820154815250508152602001906001019061021c565b505050509050919050565b60015481565b60006001805461030b91906111c1565b60018190555060008060006001548152602001908152602001600020905085816000019080519060200190610341929190610aaf565b508481600101908051906020019061035a929190610aaf565b5060008160020181905550600080600154815260200190815260200160002060040160405180604001604052808681526020016000815250908060018154018082558091505060019003906000526020600020906002020160009091909190915060008201518160000190805190602001906103d7929190610aaf565b5060208201518160010155505060008060015481526020019081526020016000206004016040518060400160405280858152602001600081525090806001815401808255809150506001900390600052602060002090600202016000909190919091506000820151816000019080519060200190610456929190610aaf565b506020820151816001015550503373ffffffffffffffffffffffffffffffffffffffff166001547f8a603d6b4a9c032c1511a65b7c0d53c3da04a2ec51a9008120e41f339d02f9f988886040516104ae929190611217565b60405180910390a3600154915050949350505050565b60008082815260200190815260200160002060030160003373ffffffffffffffffffffffffffffffffffffffff1673ffffffffffffffffffffffffffffffffffffffff16815260200190815260200160002060000160009054906101000a900460ff1615610567576040517f08c379a000000000000000000000000000000000000000000000000000000000815260040161055e9061129a565b60405180910390fd5b600160008083815260200190815260200160002060030160003373ffffffffffffffffffffffffffffffffffffffff1673ffffffffffffffffffffffffffffffffffffffff16815260200190815260200160002060000160006101000a81548160ff02191690831515021790555050565b60006020528060005260406000206000915090508060000180546105fb90611160565b80601f016020809104026020016040519081016040528092919081815260200182805461062790611160565b80156106745780601f1061064957610100808354040283529160200191610674565b820191906000526020600020905b81548152906001019060200180831161065757829003601f168201915b50505050509080600101805461068990611160565b80601f01602080910402602001604051908101604052809291908181526020018280546106b590611160565b80156107025780601f106106d757610100808354040283529160200191610702565b820191906000526020600020905b8154815290600101906020018083116106e557829003601f168201915b5050505050908060020154905083565b60008083815260200190815260200160002060030160003373ffffffffffffffffffffffffffffffffffffffff1673ffffffffffffffffffffffffffffffffffffffff16815260200190815260200160002060000160019054906101000a900460ff16156107b5576040517f08c379a00000000000000000000000000000000000000000000000000000000081526004016107ac90611306565b60405180910390fd5b6001600260009054906101000a900473ffffffffffffffffffffffffffffffffffffffff1673ffffffffffffffffffffffffffffffffffffffff166370a08231336040518263ffffffff1660e01b81526004016108129190611347565b602060405180830381865afa15801561082f573d6000803e3d6000fd5b505050506040513d601f19601f820116820180604052508101906108539190611377565b1015610894576040517f08c379a000000000000000000000000000000000000000000000000000000000815260040161088b906113f0565b60405180910390fd5b600260009054906101000a900473ffffffffffffffffffffffffffffffffffffffff1673ffffffffffffffffffffffffffffffffffffffff166323b872dd333060016040518463ffffffff1660e01b81526004016108f49392919061144b565b6020604051808303816000875af1158015610913573d6000803e3d6000fd5b505050506040513d601f19601f8201168201806040525081019061093791906114ba565b61094057600080fd5b8060008084815260200190815260200160002060030160003373ffffffffffffffffffffffffffffffffffffffff1673ffffffffffffffffffffffffffffffffffffffff16815260200190815260200160002060010181905550600160008084815260200190815260200160002060030160003373ffffffffffffffffffffffffffffffffffffffff1673ffffffffffffffffffffffffffffffffffffffff16815260200190815260200160002060000160016101000a81548160ff02191690831515021790555060016000808481526020019081526020016000206004018281548110610a3157610a306114e7565b5b90600052602060002090600202016001016000828254610a5191906111c1565b9250508190555060016000808481526020019081526020016000206002016000828254610a7e91906111c1565b925050819055505050565b600260009054906101000a900473ffffffffffffffffffffffffffffffffffffffff1681565b828054610abb90611160565b90600052602060002090601f016020900481019282610add5760008555610b24565b82601f10610af657805160ff1916838001178555610b24565b82800160010185558215610b24579182015b82811115610b23578251825591602001919060010190610b08565b5b509050610b319190610b35565b5090565b5b80821115610b4e576000816000905550600101610b36565b5090565b6000604051905090565b600080fd5b600080fd5b6000819050919050565b610b7981610b66565b8114610b8457600080fd5b50565b600081359050610b9681610b70565b92915050565b600060208284031215610bb257610bb1610b5c565b5b6000610bc084828501610b87565b91505092915050565b610bd281610b66565b82525050565b6000602082019050610bed6000830184610bc9565b92915050565b600081519050919050565b600082825260208201905092915050565b6000819050602082019050919050565b600081519050919050565b600082825260208201905092915050565b60005b83811015610c59578082015181840152602081019050610c3e565b83811115610c68576000848401525b50505050565b6000601f19601f8301169050919050565b6000610c8a82610c1f565b610c948185610c2a565b9350610ca4818560208601610c3b565b610cad81610c6e565b840191505092915050565b610cc181610b66565b82525050565b60006040830160008301518482036000860152610ce48282610c7f565b9150506020830151610cf96020860182610cb8565b508091505092915050565b6000610d108383610cc7565b905092915050565b6000602082019050919050565b6000610d3082610bf3565b610d3a8185610bfe565b935083602082028501610d4c85610c0f565b8060005b85811015610d885784840389528151610d698582610d04565b9450610d7483610d18565b925060208a01995050600181019050610d50565b50829750879550505050505092915050565b60006020820190508181036000830152610db48184610d25565b905092915050565b600080fd5b600080fd5b7f4e487b7100000000000000000000000000000000000000000000000000000000600052604160045260246000fd5b610dfe82610c6e565b810181811067ffffffffffffffff82111715610e1d57610e1c610dc6565b5b80604052505050565b6000610e30610b52565b9050610e3c8282610df5565b919050565b600067ffffffffffffffff821115610e5c57610e5b610dc6565b5b610e6582610c6e565b9050602081019050919050565b82818337600083830152505050565b6000610e94610e8f84610e41565b610e26565b905082815260208101848484011115610eb057610eaf610dc1565b5b610ebb848285610e72565b509392505050565b600082601f830112610ed857610ed7610dbc565b5b8135610ee8848260208601610e81565b91505092915050565b60008060008060808587031215610f0b57610f0a610b5c565b5b600085013567ffffffffffffffff811115610f2957610f28610b61565b5b610f3587828801610ec3565b945050602085013567ffffffffffffffff811115610f5657610f55610b61565b5b610f6287828801610ec3565b935050604085013567ffffffffffffffff811115610f8357610f82610b61565b5b610f8f87828801610ec3565b925050606085013567ffffffffffffffff811115610fb057610faf610b61565b5b610fbc87828801610ec3565b91505092959194509250565b600082825260208201905092915050565b6000610fe482610c1f565b610fee8185610fc8565b9350610ffe818560208601610c3b565b61100781610c6e565b840191505092915050565b6000606082019050818103600083015261102c8186610fd9565b905081810360208301526110408185610fd9565b905061104f6040830184610bc9565b949350505050565b6000806040838503121561106e5761106d610b5c565b5b600061107c85828601610b87565b925050602061108d85828601610b87565b9150509250929050565b600073ffffffffffffffffffffffffffffffffffffffff82169050919050565b6000819050919050565b60006110dc6110d76110d284611097565b6110b7565b611097565b9050919050565b60006110ee826110c1565b9050919050565b6000611100826110e3565b9050919050565b611110816110f5565b82525050565b600060208201905061112b6000830184611107565b92915050565b7f4e487b7100000000000000000000000000000000000000000000000000000000600052602260045260246000fd5b6000600282049050600182168061117857607f821691505b6020821081141561118c5761118b611131565b5b50919050565b7f4e487b7100000000000000000000000000000000000000000000000000000000600052601160045260246000fd5b60006111cc82610b66565b91506111d783610b66565b9250827fffffffffffffffffffffffffffffffffffffffffffffffffffffffffffffffff0382111561120c5761120b611192565b5b828201905092915050565b600060408201905081810360008301526112318185610fd9565b905081810360208301526112458184610fd9565b90509392505050565b7f4a6f696e656420616c7265616479210000000000000000000000000000000000600082015250565b6000611284600f83610fc8565b915061128f8261124e565b602082019050919050565b600060208201905081810360008301526112b381611277565b9050919050565b7f566f74656420616c726561647921000000000000000000000000000000000000600082015250565b60006112f0600e83610fc8565b91506112fb826112ba565b602082019050919050565b6000602082019050818103600083015261131f816112e3565b9050919050565b600061133182611097565b9050919050565b61134181611326565b82525050565b600060208201905061135c6000830184611338565b92915050565b60008151905061137181610b70565b92915050565b60006020828403121561138d5761138c610b5c565b5b600061139b84828501611362565b91505092915050565b7f4e6f7420656e6f7567682062616c616e63650000000000000000000000000000600082015250565b60006113da601283610fc8565b91506113e5826113a4565b602082019050919050565b60006020820190508181036000830152611409816113cd565b9050919050565b6000819050919050565b600061143561143061142b84611410565b6110b7565b610b66565b9050919050565b6114458161141a565b82525050565b60006060820190506114606000830186611338565b61146d6020830185611338565b61147a604083018461143c565b949350505050565b60008115159050919050565b61149781611482565b81146114a257600080fd5b50565b6000815190506114b48161148e565b92915050565b6000602082840312156114d0576114cf610b5c565b5b60006114de848285016114a5565b91505092915050565b7f4e487b7100000000000000000000000000000000000000000000000000000000600052603260045260246000fdfea26469706673582212202b25930310cdcd66adb7e65b855cc2325566cb474b292810de0c2e5131176f8064736f6c634300080a0033",
  "immutableReferences": {},
  "source": "// SPDX-License-Identifier: GPL-3.0\r\npragma solidity >=0.7.0 <0.9.0;\r\nimport \"./VoteToken.sol\";\r\n\r\ncontract Voting {\r\n\r\n    event _PollCreated(string pollName, string description, uint256 indexed pollID, address indexed creator);\r\n\r\n    struct Poll {\r\n        string pollName;\r\n        string description;\r\n        uint256 totalVotes;\r\n        mapping(address => Voter) voters;\r\n        Candidate [] candidates;\r\n    }\r\n    \r\n    struct Candidate {\r\n        string name;\r\n        uint256 voteCount;\r\n    }\r\n    \r\n    struct Voter {\r\n        bool joined;\r\n        bool voted;\r\n        uint256 vote;\r\n    }\r\n    \r\n    mapping(uint => Poll) public polls;\r\n    uint public pollID;\r\n\r\n    VoteToken public token;\r\n\r\n    constructor(address _token) {\r\n        require(_token != address(0) && address(token) == address(0));\r\n        token = VoteToken(_token);\r\n    }  \r\n    \r\n    function createPoll(string memory _pollName, string memory _description, string memory _candidate1, string memory _candidate2) public returns (uint256){\r\n        pollID = pollID + 1;\r\n\r\n        Poll storage newPoll = polls[pollID];\r\n        newPoll.pollName = _pollName;\r\n        newPoll.description = _description;\r\n        newPoll.totalVotes = 0;\r\n\r\n        polls[pollID].candidates.push(Candidate(_candidate1,0));\r\n        polls[pollID].candidates.push(Candidate(_candidate2,0));\r\n\r\n        emit _PollCreated(_pollName, _description, pollID, msg.sender);\r\n        return pollID;\r\n    }\r\n    \r\n    function getNumCandidate(uint256 _pollID) public view returns(uint256) {\r\n        return polls[_pollID].candidates.length;\r\n    }\r\n    \r\n    function getCandidates(uint256 _pollID) public view returns(Candidate [] memory){\r\n        return polls[_pollID].candidates;\r\n    }\r\n    \r\n    function joinPoll(uint256 _pollID) public{\r\n        require(\r\n            !polls[_pollID].voters[msg.sender].joined,\r\n            \"Joined already!\"\r\n            );\r\n            \r\n        polls[_pollID].voters[msg.sender].joined=true;\r\n    }\r\n    \r\n    function vote(uint256 _pollID, uint256 _voteIndex) public{\r\n        require(\r\n            !polls[_pollID].voters[msg.sender].voted,\r\n            \"Voted already!\"\r\n            );\r\n        \r\n        require(token.balanceOf(msg.sender) >= 1, \"Not enough balance\");\r\n        require(token.transferFrom(msg.sender, address(this), 1));\r\n       \r\n        polls[_pollID].voters[msg.sender].vote=_voteIndex;\r\n        polls[_pollID].voters[msg.sender].voted=true;\r\n        \r\n        polls[_pollID].candidates[_voteIndex].voteCount+=1;\r\n        polls[_pollID].totalVotes+=1;\r\n    }    \r\n    \r\n    /*\r\n    function end() public {\r\n        selfdestruct(payable(owner));\r\n    }\r\n    */\r\n}\r\n",
  "sourcePath": "C:\\Users\\Admin\\blockchain-programming\\contracts\\Voting.sol",
  "compiler": {
    "name": "solc",
    "version": "0.8.10+commit.fc410830.Emscripten.clang"
  },
  "schemaVersion": "3.4.3",
  "updatedAt": "2021-12-07T14:43:34.818Z",
  "networkType": "ethereum",
  "devdoc": {
    "kind": "dev",
    "methods": {},
    "version": 1
  },
  "userdoc": {
    "kind": "user",
    "methods": {},
    "version": 1
  }
}