{
  "contractName": "Voting",
  "abi": [
    {
      "inputs": [
        {
          "internalType": "address",
          "name": "_token",
          "type": "address"
        }
      ],
      "stateMutability": "nonpayable",
      "type": "constructor"
    },
    {
      "anonymous": false,
      "inputs": [
        {
          "indexed": false,
          "internalType": "string",
          "name": "pollName",
          "type": "string"
        },
        {
          "indexed": false,
          "internalType": "string",
          "name": "description",
          "type": "string"
        },
        {
          "indexed": true,
          "internalType": "uint256",
          "name": "pollID",
          "type": "uint256"
        },
        {
          "indexed": true,
          "internalType": "address",
          "name": "creator",
          "type": "address"
        }
      ],
      "name": "_PollCreated",
      "type": "event"
    },
    {
      "inputs": [],
      "name": "pollID",
      "outputs": [
        {
          "internalType": "uint256",
          "name": "",
          "type": "uint256"
        }
      ],
      "stateMutability": "view",
      "type": "function"
    },
    {
      "inputs": [
        {
          "internalType": "uint256",
          "name": "",
          "type": "uint256"
        }
      ],
      "name": "polls",
      "outputs": [
        {
          "internalType": "address",
          "name": "owner",
          "type": "address"
        },
        {
          "internalType": "string",
          "name": "pollName",
          "type": "string"
        },
        {
          "internalType": "string",
          "name": "description",
          "type": "string"
        },
        {
          "internalType": "uint256",
          "name": "totalVotes",
          "type": "uint256"
        },
        {
          "internalType": "uint256",
          "name": "expirationDate",
          "type": "uint256"
        },
        {
          "internalType": "bool",
          "name": "open",
          "type": "bool"
        }
      ],
      "stateMutability": "view",
      "type": "function"
    },
    {
      "inputs": [],
      "name": "token",
      "outputs": [
        {
          "internalType": "contract VoteToken",
          "name": "",
          "type": "address"
        }
      ],
      "stateMutability": "view",
      "type": "function"
    },
    {
      "inputs": [
        {
          "internalType": "string",
          "name": "_pollName",
          "type": "string"
        },
        {
          "internalType": "string",
          "name": "_description",
          "type": "string"
        },
        {
          "internalType": "string",
          "name": "_candidate1",
          "type": "string"
        },
        {
          "internalType": "string",
          "name": "_candidate2",
          "type": "string"
        },
        {
          "internalType": "bool",
          "name": "_open",
          "type": "bool"
        }
      ],
      "name": "createPoll",
      "outputs": [
        {
          "internalType": "uint256",
          "name": "",
          "type": "uint256"
        }
      ],
      "stateMutability": "nonpayable",
      "type": "function"
    },
    {
      "inputs": [
        {
          "internalType": "uint256",
          "name": "_pollID",
          "type": "uint256"
        }
      ],
      "name": "getNumCandidate",
      "outputs": [
        {
          "internalType": "uint256",
          "name": "",
          "type": "uint256"
        }
      ],
      "stateMutability": "view",
      "type": "function"
    },
    {
      "inputs": [
        {
          "internalType": "uint256",
          "name": "_pollID",
          "type": "uint256"
        }
      ],
      "name": "getCandidates",
      "outputs": [
        {
          "components": [
            {
              "internalType": "string",
              "name": "name",
              "type": "string"
            },
            {
              "internalType": "uint256",
              "name": "voteCount",
              "type": "uint256"
            }
          ],
          "internalType": "struct Voting.Candidate[]",
          "name": "",
          "type": "tuple[]"
        }
      ],
      "stateMutability": "view",
      "type": "function"
    },
    {
      "inputs": [
        {
          "internalType": "uint256",
          "name": "_pollID",
          "type": "uint256"
        },
        {
          "internalType": "address",
          "name": "_person",
          "type": "address"
        }
      ],
      "name": "authorize",
      "outputs": [],
      "stateMutability": "nonpayable",
      "type": "function"
    },
    {
      "inputs": [
        {
          "internalType": "uint256",
          "name": "_pollID",
          "type": "uint256"
        }
      ],
      "name": "joinPoll",
      "outputs": [],
      "stateMutability": "nonpayable",
      "type": "function"
    },
    {
      "inputs": [
        {
          "internalType": "uint256",
          "name": "_pollID",
          "type": "uint256"
        },
        {
          "internalType": "uint256",
          "name": "_voteIndex",
          "type": "uint256"
        }
      ],
      "name": "vote",
      "outputs": [],
      "stateMutability": "nonpayable",
      "type": "function"
    }
  ],
  "bytecode": "0x60806040523480156200001157600080fd5b5060405162001e6938038062001e6983398181016040528101906200003791906200017f565b600073ffffffffffffffffffffffffffffffffffffffff168173ffffffffffffffffffffffffffffffffffffffff1614158015620000c35750600073ffffffffffffffffffffffffffffffffffffffff16600260009054906101000a900473ffffffffffffffffffffffffffffffffffffffff1673ffffffffffffffffffffffffffffffffffffffff16145b620000cd57600080fd5b80600260006101000a81548173ffffffffffffffffffffffffffffffffffffffff021916908373ffffffffffffffffffffffffffffffffffffffff16021790555050620001b1565b600080fd5b600073ffffffffffffffffffffffffffffffffffffffff82169050919050565b600062000147826200011a565b9050919050565b62000159816200013a565b81146200016557600080fd5b50565b60008151905062000179816200014e565b92915050565b60006020828403121562000198576200019762000115565b5b6000620001a88482850162000168565b91505092915050565b611ca880620001c16000396000f3fe608060405234801561001057600080fd5b50600436106100935760003560e01c806340d1c76f1161006657806340d1c76f1461013257806383fc0f0914610162578063ac2f00741461017e578063b384abef146101b3578063fc0c546a146101cf57610093565b80632a850667146100985780633a448291146100b45780633e39a7a5146100e4578063401bf08414610114575b600080fd5b6100b260048036038101906100ad9190611066565b6101ed565b005b6100ce60048036038101906100c991906110a6565b61035e565b6040516100db91906110e2565b60405180910390f35b6100fe60048036038101906100f991906110a6565b6103da565b60405161010b91906112a4565b60405180910390f35b61011c6104ea565b60405161012991906110e2565b60405180910390f35b61014c60048036038101906101479190611433565b6104f0565b60405161015991906110e2565b60405180910390f35b61017c600480360381019061017791906110a6565b61072f565b005b610198600480360381019061019391906110a6565b6108ff565b6040516101aa96959493929190611586565b60405180910390f35b6101cd60048036038101906101c891906115f5565b610a78565b005b6101d7610ef5565b6040516101e49190611694565b60405180910390f35b8160008082815260200190815260200160002060000160009054906101000a900473ffffffffffffffffffffffffffffffffffffffff1673ffffffffffffffffffffffffffffffffffffffff163373ffffffffffffffffffffffffffffffffffffffff1614610291576040517f08c379a0000000000000000000000000000000000000000000000000000000008152600401610288906116fb565b60405180910390fd5b82600080828152602001908152602001600020600401544211156102ea576040517f08c379a00000000000000000000000000000000000000000000000000000000081526004016102e190611767565b60405180910390fd5b600160008086815260200190815260200160002060060160008573ffffffffffffffffffffffffffffffffffffffff1673ffffffffffffffffffffffffffffffffffffffff16815260200190815260200160002060000160006101000a81548160ff02191690831515021790555050505050565b600081600080828152602001908152602001600020600401544211156103b9576040517f08c379a00000000000000000000000000000000000000000000000000000000081526004016103b090611767565b60405180910390fd5b60008084815260200190815260200160002060070180549050915050919050565b6060600080838152602001908152602001600020600701805480602002602001604051908101604052809291908181526020016000905b828210156104df5783829060005260206000209060020201604051806040016040529081600082018054610444906117b6565b80601f0160208091040260200160405190810160405280929190818152602001828054610470906117b6565b80156104bd5780601f10610492576101008083540402835291602001916104bd565b820191906000526020600020905b8154815290600101906020018083116104a057829003601f168201915b5050505050815260200160018201548152505081526020019060010190610411565b505050509050919050565b60015481565b6000600180546105009190611817565b600181905550600080600060015481526020019081526020016000209050338160000160006101000a81548173ffffffffffffffffffffffffffffffffffffffff021916908373ffffffffffffffffffffffffffffffffffffffff16021790555086816001019080519060200190610579929190610f1b565b5085816002019080519060200190610592929190610f1b565b5060008160030181905550610708426105ab9190611817565b8160040181905550828160050160006101000a81548160ff02191690831515021790555060008060015481526020019081526020016000206007016040518060400160405280878152602001600081525090806001815401808255809150506001900390600052602060002090600202016000909190919091506000820151816000019080519060200190610641929190610f1b565b50602082015181600101555050600080600154815260200190815260200160002060070160405180604001604052808681526020016000815250908060018154018082558091505060019003906000526020600020906002020160009091909190915060008201518160000190805190602001906106c0929190610f1b565b506020820151816001015550503373ffffffffffffffffffffffffffffffffffffffff166001547f8a603d6b4a9c032c1511a65b7c0d53c3da04a2ec51a9008120e41f339d02f9f9898960405161071892919061186d565b60405180910390a360015491505095945050505050565b8060008082815260200190815260200160002060040154421115610788576040517f08c379a000000000000000000000000000000000000000000000000000000000815260040161077f90611767565b60405180910390fd5b60008083815260200190815260200160002060060160003373ffffffffffffffffffffffffffffffffffffffff1673ffffffffffffffffffffffffffffffffffffffff16815260200190815260200160002060000160009054906101000a900460ff161561082b576040517f08c379a0000000000000000000000000000000000000000000000000000000008152600401610822906118f0565b60405180910390fd5b60008083815260200190815260200160002060050160009054906101000a900460ff1661088d576040517f08c379a000000000000000000000000000000000000000000000000000000000815260040161088490611982565b60405180910390fd5b600160008084815260200190815260200160002060060160003373ffffffffffffffffffffffffffffffffffffffff1673ffffffffffffffffffffffffffffffffffffffff16815260200190815260200160002060000160006101000a81548160ff0219169083151502179055505050565b60006020528060005260406000206000915090508060000160009054906101000a900473ffffffffffffffffffffffffffffffffffffffff1690806001018054610948906117b6565b80601f0160208091040260200160405190810160405280929190818152602001828054610974906117b6565b80156109c15780601f10610996576101008083540402835291602001916109c1565b820191906000526020600020905b8154815290600101906020018083116109a457829003601f168201915b5050505050908060020180546109d6906117b6565b80601f0160208091040260200160405190810160405280929190818152602001828054610a02906117b6565b8015610a4f5780601f10610a2457610100808354040283529160200191610a4f565b820191906000526020600020905b815481529060010190602001808311610a3257829003601f168201915b5050505050908060030154908060040154908060050160009054906101000a900460ff16905086565b8160008082815260200190815260200160002060040154421115610ad1576040517f08c379a0000000000000000000000000000000000000000000000000000000008152600401610ac890611767565b60405180910390fd5b600160008085815260200190815260200160002060060160003373ffffffffffffffffffffffffffffffffffffffff1673ffffffffffffffffffffffffffffffffffffffff16815260200190815260200160002060000160006101000a81548160ff0219169083151502179055610b7d576040517f08c379a0000000000000000000000000000000000000000000000000000000008152600401610b7490611a3a565b60405180910390fd5b60008084815260200190815260200160002060060160003373ffffffffffffffffffffffffffffffffffffffff1673ffffffffffffffffffffffffffffffffffffffff16815260200190815260200160002060000160019054906101000a900460ff1615610c20576040517f08c379a0000000000000000000000000000000000000000000000000000000008152600401610c1790611aa6565b60405180910390fd5b6001600260009054906101000a900473ffffffffffffffffffffffffffffffffffffffff1673ffffffffffffffffffffffffffffffffffffffff166370a08231336040518263ffffffff1660e01b8152600401610c7d9190611ac6565b602060405180830381865afa158015610c9a573d6000803e3d6000fd5b505050506040513d601f19601f82011682018060405250810190610cbe9190611af6565b1015610cff576040517f08c379a0000000000000000000000000000000000000000000000000000000008152600401610cf690611b6f565b60405180910390fd5b600260009054906101000a900473ffffffffffffffffffffffffffffffffffffffff1673ffffffffffffffffffffffffffffffffffffffff166323b872dd333060016040518463ffffffff1660e01b8152600401610d5f93929190611bca565b6020604051808303816000875af1158015610d7e573d6000803e3d6000fd5b505050506040513d601f19601f82011682018060405250810190610da29190611c16565b610dab57600080fd5b8160008085815260200190815260200160002060060160003373ffffffffffffffffffffffffffffffffffffffff1673ffffffffffffffffffffffffffffffffffffffff16815260200190815260200160002060010181905550600160008085815260200190815260200160002060060160003373ffffffffffffffffffffffffffffffffffffffff1673ffffffffffffffffffffffffffffffffffffffff16815260200190815260200160002060000160016101000a81548160ff02191690831515021790555060016000808581526020019081526020016000206007018381548110610e9c57610e9b611c43565b5b90600052602060002090600202016001016000828254610ebc9190611817565b9250508190555060016000808581526020019081526020016000206003016000828254610ee99190611817565b92505081905550505050565b600260009054906101000a900473ffffffffffffffffffffffffffffffffffffffff1681565b828054610f27906117b6565b90600052602060002090601f016020900481019282610f495760008555610f90565b82601f10610f6257805160ff1916838001178555610f90565b82800160010185558215610f90579182015b82811115610f8f578251825591602001919060010190610f74565b5b509050610f9d9190610fa1565b5090565b5b80821115610fba576000816000905550600101610fa2565b5090565b6000604051905090565b600080fd5b600080fd5b6000819050919050565b610fe581610fd2565b8114610ff057600080fd5b50565b60008135905061100281610fdc565b92915050565b600073ffffffffffffffffffffffffffffffffffffffff82169050919050565b600061103382611008565b9050919050565b61104381611028565b811461104e57600080fd5b50565b6000813590506110608161103a565b92915050565b6000806040838503121561107d5761107c610fc8565b5b600061108b85828601610ff3565b925050602061109c85828601611051565b9150509250929050565b6000602082840312156110bc576110bb610fc8565b5b60006110ca84828501610ff3565b91505092915050565b6110dc81610fd2565b82525050565b60006020820190506110f760008301846110d3565b92915050565b600081519050919050565b600082825260208201905092915050565b6000819050602082019050919050565b600081519050919050565b600082825260208201905092915050565b60005b83811015611163578082015181840152602081019050611148565b83811115611172576000848401525b50505050565b6000601f19601f8301169050919050565b600061119482611129565b61119e8185611134565b93506111ae818560208601611145565b6111b781611178565b840191505092915050565b6111cb81610fd2565b82525050565b600060408301600083015184820360008601526111ee8282611189565b915050602083015161120360208601826111c2565b508091505092915050565b600061121a83836111d1565b905092915050565b6000602082019050919050565b600061123a826110fd565b6112448185611108565b93508360208202850161125685611119565b8060005b858110156112925784840389528151611273858261120e565b945061127e83611222565b925060208a0199505060018101905061125a565b50829750879550505050505092915050565b600060208201905081810360008301526112be818461122f565b905092915050565b600080fd5b600080fd5b7f4e487b7100000000000000000000000000000000000000000000000000000000600052604160045260246000fd5b61130882611178565b810181811067ffffffffffffffff82111715611327576113266112d0565b5b80604052505050565b600061133a610fbe565b905061134682826112ff565b919050565b600067ffffffffffffffff821115611366576113656112d0565b5b61136f82611178565b9050602081019050919050565b82818337600083830152505050565b600061139e6113998461134b565b611330565b9050828152602081018484840111156113ba576113b96112cb565b5b6113c584828561137c565b509392505050565b600082601f8301126113e2576113e16112c6565b5b81356113f284826020860161138b565b91505092915050565b60008115159050919050565b611410816113fb565b811461141b57600080fd5b50565b60008135905061142d81611407565b92915050565b600080600080600060a0868803121561144f5761144e610fc8565b5b600086013567ffffffffffffffff81111561146d5761146c610fcd565b5b611479888289016113cd565b955050602086013567ffffffffffffffff81111561149a57611499610fcd565b5b6114a6888289016113cd565b945050604086013567ffffffffffffffff8111156114c7576114c6610fcd565b5b6114d3888289016113cd565b935050606086013567ffffffffffffffff8111156114f4576114f3610fcd565b5b611500888289016113cd565b92505060806115118882890161141e565b9150509295509295909350565b61152781611028565b82525050565b600082825260208201905092915050565b600061154982611129565b611553818561152d565b9350611563818560208601611145565b61156c81611178565b840191505092915050565b611580816113fb565b82525050565b600060c08201905061159b600083018961151e565b81810360208301526115ad818861153e565b905081810360408301526115c1818761153e565b90506115d060608301866110d3565b6115dd60808301856110d3565b6115ea60a0830184611577565b979650505050505050565b6000806040838503121561160c5761160b610fc8565b5b600061161a85828601610ff3565b925050602061162b85828601610ff3565b9150509250929050565b6000819050919050565b600061165a61165561165084611008565b611635565b611008565b9050919050565b600061166c8261163f565b9050919050565b600061167e82611661565b9050919050565b61168e81611673565b82525050565b60006020820190506116a96000830184611685565b92915050565b7f4f6e6c7920746865206f776e65722063616e20646f2074686973000000000000600082015250565b60006116e5601a8361152d565b91506116f0826116af565b602082019050919050565b60006020820190508181036000830152611714816116d8565b9050919050565b7f506f6c6c206e6f742076616c696420616e796d6f726500000000000000000000600082015250565b600061175160168361152d565b915061175c8261171b565b602082019050919050565b6000602082019050818103600083015261178081611744565b9050919050565b7f4e487b7100000000000000000000000000000000000000000000000000000000600052602260045260246000fd5b600060028204905060018216806117ce57607f821691505b602082108114156117e2576117e1611787565b5b50919050565b7f4e487b7100000000000000000000000000000000000000000000000000000000600052601160045260246000fd5b600061182282610fd2565b915061182d83610fd2565b9250827fffffffffffffffffffffffffffffffffffffffffffffffffffffffffffffffff03821115611862576118616117e8565b5b828201905092915050565b60006040820190508181036000830152611887818561153e565b9050818103602083015261189b818461153e565b90509392505050565b7f596f7527726520617574686f72697a656420616c726561647921000000000000600082015250565b60006118da601a8361152d565b91506118e5826118a4565b602082019050919050565b60006020820190508181036000830152611909816118cd565b9050919050565b7f54686973206973206f6e6c7920666f7220617574686f72697a65642070656f7060008201527f6c65000000000000000000000000000000000000000000000000000000000000602082015250565b600061196c60228361152d565b915061197782611910565b604082019050919050565b6000602082019050818103600083015261199b8161195f565b9050919050565b7f596f75277265206e6f7420617574686f72697a656420746f20646f207468697360008201527f2e204a6f696e206f72207265717565737420617574686f72697a6174696f6e2060208201527f66726f6d20746865206f776e6572000000000000000000000000000000000000604082015250565b6000611a24604e8361152d565b9150611a2f826119a2565b606082019050919050565b60006020820190508181036000830152611a5381611a17565b9050919050565b7f566f74656420616c726561647921000000000000000000000000000000000000600082015250565b6000611a90600e8361152d565b9150611a9b82611a5a565b602082019050919050565b60006020820190508181036000830152611abf81611a83565b9050919050565b6000602082019050611adb600083018461151e565b92915050565b600081519050611af081610fdc565b92915050565b600060208284031215611b0c57611b0b610fc8565b5b6000611b1a84828501611ae1565b91505092915050565b7f4e6f7420656e6f7567682062616c616e63650000000000000000000000000000600082015250565b6000611b5960128361152d565b9150611b6482611b23565b602082019050919050565b60006020820190508181036000830152611b8881611b4c565b9050919050565b6000819050919050565b6000611bb4611baf611baa84611b8f565b611635565b610fd2565b9050919050565b611bc481611b99565b82525050565b6000606082019050611bdf600083018661151e565b611bec602083018561151e565b611bf96040830184611bbb565b949350505050565b600081519050611c1081611407565b92915050565b600060208284031215611c2c57611c2b610fc8565b5b6000611c3a84828501611c01565b91505092915050565b7f4e487b7100000000000000000000000000000000000000000000000000000000600052603260045260246000fdfea264697066735822122089bbb87a99024185c6e9eda57941c01a98f915fc5df4b7f474794d40f8f623af64736f6c634300080a0033",
  "immutableReferences": {},
  "source": "// SPDX-License-Identifier: GPL-3.0\npragma solidity >=0.7.0 <0.9.0;\nimport \"./VoteToken.sol\";\n\ncontract Voting {\n\n    //event that will be logged on the blockchain\n    event _PollCreated(string pollName, string description, uint256 indexed pollID, address indexed creator);\n\n    //own data structure to define a poll\n    struct Poll {\n        address owner;\n        string pollName;\n        string description;\n        uint256 totalVotes;\n        uint256 expirationDate;\n        bool open;\n        //define key-value voters map, i.e. each voter has an address\n        mapping(address => Voter) voters;\n        Candidate [] candidates;\n    }\n    \n    struct Candidate {\n        string name;\n        uint256 voteCount;\n    }\n    \n    struct Voter {\n        bool authorized;\n        bool voted;\n        uint256 vote;\n    }\n    \n    //define key-value polls map, i.e. each poll with its own id\n    mapping(uint => Poll) public polls;\n    uint public pollID;\n    \n    //the ERC20 tokens used for voting\n    VoteToken public token;\n\n    //check if it's the owner\n    modifier ownerOnly(uint256 id){\n        require(msg.sender==polls[id].owner, \"Only the owner can do this\");\n        //execute function if owner condition was met\n        _;\n    }\n\n    //check if the expirationDate has been passed\n    modifier timerOver(uint256 id){\n        require(block.timestamp <= polls[id].expirationDate, \"Poll not valid anymore\");\n        //execute function if the poll is still valid\n        _;\n    }\n\n    //create the new contract (on deployment)\n    constructor(address _token) {\n        //make sure no zero address is used to create the vote token\n        require(_token != address(0) && address(token) == address(0));\n        token = VoteToken(_token);\n    }  \n\n    //create a new poll with name, description, 2 candidates and make it open/private\n    function createPoll(string memory _pollName, string memory _description, string memory _candidate1, string memory _candidate2, bool _open) public returns (uint256){\n        pollID = pollID + 1;\n\n        Poll storage newPoll = polls[pollID];\n        newPoll.owner = msg.sender;\n        newPoll.pollName = _pollName;\n        newPoll.description = _description;\n        newPoll.totalVotes = 0;\n        newPoll.expirationDate = block.timestamp + 30 minutes;\n        newPoll.open = _open;\n\n        //by default 2 candidates\n        polls[pollID].candidates.push(Candidate(_candidate1,0));\n        polls[pollID].candidates.push(Candidate(_candidate2,0));\n        \n        //trigger _PollCreated event  \n        emit _PollCreated(_pollName, _description, pollID, msg.sender);\n        return pollID;\n    }\n    \n    //get the number of candidates for the current poll\n    function getNumCandidate(uint256 _pollID) timerOver(_pollID) public view returns(uint256) {\n        return polls[_pollID].candidates.length;\n    }\n    \n    /* Returns the entire array of Candidates for the current poll, but according to Solidity this should be \n    avoided for arrays that can grow indefinitely in length. */\n    function getCandidates(uint256 _pollID) public view returns(Candidate [] memory){\n        return polls[_pollID].candidates;\n    }\n\n    //autherize addressess manually\n    function authorize(uint256 _pollID, address _person) ownerOnly(_pollID) timerOver(_pollID) public {\n        polls[_pollID].voters[_person].authorized = true;\n    }\n    \n    //join Poll with _pollID, only once per voter\n    function joinPoll(uint256 _pollID) timerOver(_pollID) public{\n        require(!polls[_pollID].voters[msg.sender].authorized,\"You're authorized already!\");\n        require(polls[_pollID].open, \"This is only for authorized people\");\n        //remembering this address joined in this poll\n        polls[_pollID].voters[msg.sender].authorized=true;\n    }\n    \n    //vote for specific candidate in specific poll\n    function vote(uint256 _pollID, uint256 _voteIndex) timerOver(_pollID) public{\n        require(polls[_pollID].voters[msg.sender].authorized = true, \"You're not authorized to do this. Join or request authorization from the owner\");        \n        require(!polls[_pollID].voters[msg.sender].voted, \"Voted already!\");\n        \n        //voter needs one token to be able to vote\n        require(token.balanceOf(msg.sender) >= 1, \"Not enough balance\");\n        //cast the vote, by sending one token to the Voting contract address\n        require(token.transferFrom(msg.sender, address(this), 1));\n       \n        //voting is for candidate at _voteIndex for the poll with _pollID\n        polls[_pollID].voters[msg.sender].vote=_voteIndex;\n        //by now voted\n        polls[_pollID].voters[msg.sender].voted=true;\n        //candidate at _voteIndex got one vote\n        polls[_pollID].candidates[_voteIndex].voteCount+=1;\n        //total votes for this poll\n        polls[_pollID].totalVotes+=1;\n    }    \n    \n}",
  "sourcePath": "/Users/solveighelland/blockchain-programming/contracts/Voting.sol",
  "compiler": {
    "name": "solc",
    "version": "0.8.10+commit.fc410830.Emscripten.clang"
  },
  "schemaVersion": "3.4.3",
  "updatedAt": "2021-12-10T16:37:03.387Z",
  "devdoc": {
    "kind": "dev",
    "methods": {},
    "version": 1
  },
  "userdoc": {
    "kind": "user",
    "methods": {},
    "version": 1
  }
}